{
  "contractName": "SPSLS",
  "abi": [
    {
      "constant": true,
      "inputs": [],
      "name": "current_game",
      "outputs": [
        {
          "name": "",
          "type": "uint256"
        }
      ],
      "payable": false,
      "stateMutability": "view",
      "type": "function"
    },
    {
      "constant": true,
      "inputs": [],
      "name": "win",
      "outputs": [
        {
          "name": "",
          "type": "uint256"
        }
      ],
      "payable": false,
      "stateMutability": "view",
      "type": "function"
    },
    {
      "constant": true,
      "inputs": [],
      "name": "choice1",
      "outputs": [
        {
          "name": "",
          "type": "uint256"
        }
      ],
      "payable": false,
      "stateMutability": "view",
      "type": "function"
    },
    {
      "constant": true,
      "inputs": [],
      "name": "current_turn",
      "outputs": [
        {
          "name": "",
          "type": "uint256"
        }
      ],
      "payable": false,
      "stateMutability": "view",
      "type": "function"
    },
    {
      "constant": true,
      "inputs": [],
      "name": "choice2",
      "outputs": [
        {
          "name": "",
          "type": "uint256"
        }
      ],
      "payable": false,
      "stateMutability": "view",
      "type": "function"
    },
    {
      "constant": true,
      "inputs": [],
      "name": "current_number_of_players",
      "outputs": [
        {
          "name": "",
          "type": "uint256"
        }
      ],
      "payable": false,
      "stateMutability": "view",
      "type": "function"
    },
    {
      "constant": true,
      "inputs": [
        {
          "name": "",
          "type": "uint256"
        },
        {
          "name": "",
          "type": "uint256"
        }
      ],
      "name": "game_matrix",
      "outputs": [
        {
          "name": "",
          "type": "uint256"
        }
      ],
      "payable": false,
      "stateMutability": "view",
      "type": "function"
    },
    {
      "constant": true,
      "inputs": [
        {
          "name": "",
          "type": "uint256"
        }
      ],
      "name": "scoreboard",
      "outputs": [
        {
          "name": "",
          "type": "uint256"
        }
      ],
      "payable": false,
      "stateMutability": "view",
      "type": "function"
    },
    {
      "constant": true,
      "inputs": [
        {
          "name": "",
          "type": "address"
        }
      ],
      "name": "balance",
      "outputs": [
        {
          "name": "",
          "type": "uint256"
        }
      ],
      "payable": false,
      "stateMutability": "view",
      "type": "function"
    },
    {
      "constant": true,
      "inputs": [
        {
          "name": "",
          "type": "uint256"
        }
      ],
      "name": "players",
      "outputs": [
        {
          "name": "",
          "type": "address"
        }
      ],
      "payable": false,
      "stateMutability": "view",
      "type": "function"
    },
    {
      "inputs": [],
      "payable": false,
      "stateMutability": "nonpayable",
      "type": "constructor"
    },
    {
      "constant": false,
      "inputs": [],
      "name": "reset_to_defaults",
      "outputs": [],
      "payable": false,
      "stateMutability": "nonpayable",
      "type": "function"
    },
    {
      "constant": false,
      "inputs": [],
      "name": "register_as_player",
      "outputs": [],
      "payable": true,
      "stateMutability": "payable",
      "type": "function"
    },
    {
      "constant": false,
      "inputs": [],
      "name": "p2_not_present_refund",
      "outputs": [],
      "payable": false,
      "stateMutability": "nonpayable",
      "type": "function"
    },
    {
      "constant": false,
      "inputs": [],
      "name": "inactivity_claim",
      "outputs": [],
      "payable": false,
      "stateMutability": "nonpayable",
      "type": "function"
    },
    {
      "constant": false,
      "inputs": [
        {
          "name": "ch",
          "type": "uint256"
        },
        {
          "name": "key",
          "type": "string"
        }
      ],
      "name": "play",
      "outputs": [],
      "payable": false,
      "stateMutability": "nonpayable",
      "type": "function"
    },
    {
      "constant": false,
      "inputs": [
        {
          "name": "ch",
          "type": "uint256"
        },
        {
          "name": "key",
          "type": "string"
        }
      ],
      "name": "reveal",
      "outputs": [],
      "payable": false,
      "stateMutability": "nonpayable",
      "type": "function"
    },
    {
      "constant": false,
      "inputs": [],
      "name": "getWinner",
      "outputs": [],
      "payable": false,
      "stateMutability": "nonpayable",
      "type": "function"
    }
  ],
  "bytecode": "0x60806040523480156200001157600080fd5b5033602060006101000a81548173ffffffffffffffffffffffffffffffffffffffff021916908373ffffffffffffffffffffffffffffffffffffffff1602179055506103e8600080602060009054906101000a900473ffffffffffffffffffffffffffffffffffffffff1673ffffffffffffffffffffffffffffffffffffffff1673ffffffffffffffffffffffffffffffffffffffff16815260200190815260200160002081905550674563918244f400006001819055506000601c81905550600a601b8190555060006022600060028110620000ea57fe5b0160006101000a81548173ffffffffffffffffffffffffffffffffffffffff021916908373ffffffffffffffffffffffffffffffffffffffff160217905550600060226001600281106200013a57fe5b0160006101000a81548173ffffffffffffffffffffffffffffffffffffffff021916908373ffffffffffffffffffffffffffffffffffffffff1602179055506000601d6000600281106200018a57fe5b01819055506000601d600160028110620001a057fe5b0181905550600060248190555060016025819055506040518060a001604052806040518060a00160405280600060ff168152602001600260ff168152602001600160ff168152602001600160ff168152602001600260ff1681525081526020016040518060a00160405280600160ff168152602001600060ff168152602001600260ff168152602001600260ff168152602001600160ff1681525081526020016040518060a00160405280600260ff168152602001600160ff168152602001600060ff168152602001600160ff168152602001600260ff1681525081526020016040518060a00160405280600260ff168152602001600160ff168152602001600260ff168152602001600060ff168152602001600160ff1681525081526020016040518060a00160405280600160ff168152602001600260ff168152602001600160ff168152602001600260ff168152602001600060ff16815250815250602f9060056200031092919062000369565b506040518060600160405280600060ff168152602001600060ff168152602001600060ff16815250602c9060036200034a929190620003c0565b50600a602681905550600a6027819055506003602a81905550620004d0565b82600580028101928215620003ad579160200282015b82811115620003ac578251829060056200039b9291906200040a565b50916020019190600501906200037f565b5b509050620003bc919062000454565b5090565b8260038101928215620003f7579160200282015b82811115620003f6578251829060ff16905591602001919060010190620003d4565b5b50905062000406919062000485565b5090565b826005810192821562000441579160200282015b8281111562000440578251829060ff169055916020019190600101906200041e565b5b50905062000450919062000485565b5090565b6200048291905b808211156200047e5760008181620004749190620004ad565b506005016200045b565b5090565b90565b620004aa91905b80821115620004a65760008160009055506001016200048c565b5090565b90565b506000815560010160008155600101600081556001016000815560010160009055565b6127be80620004e06000396000f3fe6080604052600436106100fe5760003560e01c80638b20a00c11610095578063c9cb6eeb11610064578063c9cb6eeb1461037f578063d75ffdcf14610451578063e3d670d7146104a0578063f71d96cb14610505578063fa78300014610580576100fe565b80638b20a00c146102cd5780638e2f7135146102e45780638e7ea5b21461030f578063a45c7c8814610326576100fe565b8063473ca96c116100d1578063473ca96c1461022157806349e811c51461024c57806350ae9daf1461027757806387cfa5bf146102a2576100fe565b8063185f0516146101035780631a6105171461012e5780632fa4548b1461013857806339289d191461020a575b600080fd5b34801561010f57600080fd5b50610118610597565b6040518082815260200191505060405180910390f35b61013661059d565b005b34801561014457600080fd5b506102086004803603604081101561015b57600080fd5b81019080803590602001909291908035906020019064010000000081111561018257600080fd5b82018360208201111561019457600080fd5b803590602001918460018302840111640100000000831117156101b657600080fd5b91908080601f016020809104026020016040519081016040528093929190818152602001838380828437600081840152601f19601f8201169050808301925050505050505091929192905050506108ab565b005b34801561021657600080fd5b5061021f610e56565b005b34801561022d57600080fd5b50610236610f50565b6040518082815260200191505060405180910390f35b34801561025857600080fd5b50610261610f56565b6040518082815260200191505060405180910390f35b34801561028357600080fd5b5061028c610f5c565b6040518082815260200191505060405180910390f35b3480156102ae57600080fd5b506102b7610f62565b6040518082815260200191505060405180910390f35b3480156102d957600080fd5b506102e2610f68565b005b3480156102f057600080fd5b506102f961139f565b6040518082815260200191505060405180910390f35b34801561031b57600080fd5b506103246113a5565b005b34801561033257600080fd5b506103696004803603604081101561034957600080fd5b810190808035906020019092919080359060200190929190505050611862565b6040518082815260200191505060405180910390f35b34801561038b57600080fd5b5061044f600480360360408110156103a257600080fd5b8101908080359060200190929190803590602001906401000000008111156103c957600080fd5b8201836020820111156103db57600080fd5b803590602001918460018302840111640100000000831117156103fd57600080fd5b91908080601f016020809104026020016040519081016040528093929190818152602001838380828437600081840152601f19601f82011690508083019250505050505050919291929050505061188a565b005b34801561045d57600080fd5b5061048a6004803603602081101561047457600080fd5b810190808035906020019092919050505061233a565b6040518082815260200191505060405180910390f35b3480156104ac57600080fd5b506104ef600480360360208110156104c357600080fd5b81019080803573ffffffffffffffffffffffffffffffffffffffff169060200190929190505050612352565b6040518082815260200191505060405180910390f35b34801561051157600080fd5b5061053e6004803603602081101561052857600080fd5b810190808035906020019092919050505061236a565b604051808273ffffffffffffffffffffffffffffffffffffffff1673ffffffffffffffffffffffffffffffffffffffff16815260200191505060405180910390f35b34801561058c57600080fd5b5061059561239d565b005b60255481565b602060009054906101000a900473ffffffffffffffffffffffffffffffffffffffff1673ffffffffffffffffffffffffffffffffffffffff163373ffffffffffffffffffffffffffffffffffffffff161415610661576040517f08c379a00000000000000000000000000000000000000000000000000000000081526004018080602001828103825260158152602001807f41646d696e2043616e6e6f74205265676973746572000000000000000000000081525060200191505060405180910390fd5b6002601c54106106d9576040517f08c379a00000000000000000000000000000000000000000000000000000000081526004018080602001828103825260138152602001807f526f6f6d20416c72656164792046756c6c21210000000000000000000000000081525060200191505060405180910390fd5b6001543414610750576040517f08c379a000000000000000000000000000000000000000000000000000000000815260040180806020018281038252601b8152602001807f53656e642045786163742046656520284f6e6c7920457468657229000000000081525060200191505060405180910390fd5b6001601c54141561081057602260006002811061076957fe5b0160009054906101000a900473ffffffffffffffffffffffffffffffffffffffff1673ffffffffffffffffffffffffffffffffffffffff163373ffffffffffffffffffffffffffffffffffffffff16141561080f576040517f08c379a000000000000000000000000000000000000000000000000000000000815260040180806020018281038252602281526020018061271f6022913960400191505060405180910390fd5b5b336022601c546002811061082057fe5b0160006101000a81548173ffffffffffffffffffffffffffffffffffffffff021916908373ffffffffffffffffffffffffffffffffffffffff16021790555042601d601c546002811061086f57fe5b0181905550601c600081548092919060010191905055506002601c5414156108a9576000602481905550600160258190555042601f819055505b565b600060226000600281106108bb57fe5b0160009054906101000a900473ffffffffffffffffffffffffffffffffffffffff1673ffffffffffffffffffffffffffffffffffffffff163373ffffffffffffffffffffffffffffffffffffffff1614806109705750602260016002811061091f57fe5b0160009054906101000a900473ffffffffffffffffffffffffffffffffffffffff1673ffffffffffffffffffffffffffffffffffffffff163373ffffffffffffffffffffffffffffffffffffffff16145b6109e2576040517f08c379a000000000000000000000000000000000000000000000000000000000815260040180806020018281038252601f8152602001807f596f7520617265206e6f74207265676973746572656420746f20706c61792e0081525060200191505060405180910390fd5b600260245414610a3d576040517f08c379a000000000000000000000000000000000000000000000000000000000815260040180806020018281038252602681526020018061276d6026913960400191505060405180910390fd5b6022600060028110610a4b57fe5b0160009054906101000a900473ffffffffffffffffffffffffffffffffffffffff1673ffffffffffffffffffffffffffffffffffffffff163373ffffffffffffffffffffffffffffffffffffffff161415610c4757600283836040516020018083815260200182805190602001908083835b60208310610ae05780518252602082019150602081019050602083039250610abd565b6001836020036101000a038019825116818451168082178552505050505050905001925050506040516020818303038152906040526040518082805190602001908083835b60208310610b485780518252602082019150602081019050602083039250610b25565b6001836020036101000a038019825116818451168082178552505050505050905001915050602060405180830381855afa158015610b8a573d6000803e3d6000fd5b5050506040513d6020811015610b9f57600080fd5b810190808051906020019092919050505090506028548114610c3f576022600160028110610bc957fe5b0160009054906101000a900473ffffffffffffffffffffffffffffffffffffffff1673ffffffffffffffffffffffffffffffffffffffff166108fc6001546002029081150290604051600060405180830381858888f19350505050158015610c35573d6000803e3d6000fd5b50610c3e610e56565b5b826026819055505b6022600160028110610c5557fe5b0160009054906101000a900473ffffffffffffffffffffffffffffffffffffffff1673ffffffffffffffffffffffffffffffffffffffff163373ffffffffffffffffffffffffffffffffffffffff161415610e5157600283836040516020018083815260200182805190602001908083835b60208310610cea5780518252602082019150602081019050602083039250610cc7565b6001836020036101000a038019825116818451168082178552505050505050905001925050506040516020818303038152906040526040518082805190602001908083835b60208310610d525780518252602082019150602081019050602083039250610d2f565b6001836020036101000a038019825116818451168082178552505050505050905001915050602060405180830381855afa158015610d94573d6000803e3d6000fd5b5050506040513d6020811015610da957600080fd5b810190808051906020019092919050505090506029548114610e49576022600060028110610dd357fe5b0160009054906101000a900473ffffffffffffffffffffffffffffffffffffffff1673ffffffffffffffffffffffffffffffffffffffff166108fc6001546002029081150290604051600060405180830381858888f19350505050158015610e3f573d6000803e3d6000fd5b50610e48610e56565b5b826027819055505b505050565b600a601b8190555060006022600060028110610e6e57fe5b0160006101000a81548173ffffffffffffffffffffffffffffffffffffffff021916908373ffffffffffffffffffffffffffffffffffffffff16021790555060006022600160028110610ebd57fe5b0160006101000a81548173ffffffffffffffffffffffffffffffffffffffff021916908373ffffffffffffffffffffffffffffffffffffffff1602179055506000601d600060028110610f0c57fe5b01819055506000601d600160028110610f2157fe5b018190555060006024819055506001602581905550600a602681905550600a6027819055506003602a81905550565b602b5481565b60265481565b60245481565b60275481565b6002601c5414610fe0576040517f08c379a000000000000000000000000000000000000000000000000000000000815260040180806020018281038252601a8152602001807f526f6f6d206e6f742066756c6c2c20506c65617365207761697400000000000081525060200191505060405180910390fd5b6022600160028110610fee57fe5b0160009054906101000a900473ffffffffffffffffffffffffffffffffffffffff1673ffffffffffffffffffffffffffffffffffffffff163373ffffffffffffffffffffffffffffffffffffffff1614156111c057600160026025548161105157fe5b0614801561106157506000602454145b806110865750600060026025548161107557fe5b0614801561108557506001602454145b5b156111bb5742600a601f540110611105576040517f08c379a000000000000000000000000000000000000000000000000000000000815260040180806020018281038252601f8152602001807f546f6f204561726c7920746f20436c61696d2c20706c6561736520776169740081525060200191505060405180910390fd5b602260016002811061111357fe5b0160009054906101000a900473ffffffffffffffffffffffffffffffffffffffff1673ffffffffffffffffffffffffffffffffffffffff166108fc6001546002029081150290604051600060405180830381858888f1935050505015801561117f573d6000803e3d6000fd5b50611188610e56565b6000601d60006002811061119857fe5b01819055506000601d6001600281106111ad57fe5b01819055506000601c819055505b61139d565b60226000600281106111ce57fe5b0160009054906101000a900473ffffffffffffffffffffffffffffffffffffffff1673ffffffffffffffffffffffffffffffffffffffff163373ffffffffffffffffffffffffffffffffffffffff16141561139c57600160026025548161123157fe5b0614801561124157506001602454145b806112665750600060026025548161125557fe5b0614801561126557506000602454145b5b1561139b5742600a601f5401106112e5576040517f08c379a000000000000000000000000000000000000000000000000000000000815260040180806020018281038252601f8152602001807f546f6f204561726c7920746f20436c61696d2c20706c6561736520776169740081525060200191505060405180910390fd5b60226000600281106112f357fe5b0160009054906101000a900473ffffffffffffffffffffffffffffffffffffffff1673ffffffffffffffffffffffffffffffffffffffff166108fc6001546002029081150290604051600060405180830381858888f1935050505015801561135f573d6000803e3d6000fd5b50611368610e56565b6000601d60006002811061137857fe5b01819055506000601d60016002811061138d57fe5b01819055506000601c819055505b5b5b565b601c5481565b600060226000600281106113b557fe5b0160009054906101000a900473ffffffffffffffffffffffffffffffffffffffff1673ffffffffffffffffffffffffffffffffffffffff163373ffffffffffffffffffffffffffffffffffffffff16148061146a5750602260016002811061141957fe5b0160009054906101000a900473ffffffffffffffffffffffffffffffffffffffff1673ffffffffffffffffffffffffffffffffffffffff163373ffffffffffffffffffffffffffffffffffffffff16145b905060011515811515146114e6576040517f08c379a000000000000000000000000000000000000000000000000000000000815260040180806020018281038252601f8152602001807f4f6e6c79207265676973746572656420706c617965727320616c6c6f7765640081525060200191505060405180910390fd5b600a602654141580156114fc5750600a60275414155b611551576040517f08c379a000000000000000000000000000000000000000000000000000000000815260040180806020018281038252602c815260200180612741602c913960400191505060405180910390fd5b602f6001602654036005811061156357fe5b600502016001602754036005811061157757fe5b0154602a81905550602a54602b81905550602c602a546003811061159757fe5b0160008154809291906001019190505550601b54602554141561182d57602c6002600381106115c257fe5b0154602c6001600381106115d257fe5b015414156116cf5760226000600281106115e857fe5b0160009054906101000a900473ffffffffffffffffffffffffffffffffffffffff1673ffffffffffffffffffffffffffffffffffffffff166108fc6001549081150290604051600060405180830381858888f19350505050158015611651573d6000803e3d6000fd5b50602260016002811061166057fe5b0160009054906101000a900473ffffffffffffffffffffffffffffffffffffffff1673ffffffffffffffffffffffffffffffffffffffff166108fc6001549081150290604051600060405180830381858888f193505050501580156116c9573d6000803e3d6000fd5b506117f2565b602c6002600381106116dd57fe5b0154602c6001600381106116ed57fe5b0154111561177557602260006002811061170357fe5b0160009054906101000a900473ffffffffffffffffffffffffffffffffffffffff1673ffffffffffffffffffffffffffffffffffffffff166108fc6001546002029081150290604051600060405180830381858888f1935050505015801561176f573d6000803e3d6000fd5b506117f1565b602260016002811061178357fe5b0160009054906101000a900473ffffffffffffffffffffffffffffffffffffffff1673ffffffffffffffffffffffffffffffffffffffff166108fc6001546002029081150290604051600060405180830381858888f193505050501580156117ef573d6000803e3d6000fd5b505b5b6000601d60006002811061180257fe5b01819055506000601d60016002811061181757fe5b01819055506000601c8190555061182c610e56565b5b6025600081548092919060010191905055506000602481905550600a602681905550600a6027819055506003602a8190555050565b602f826005811061186f57fe5b60050201816005811061187e57fe5b01600091509150505481565b6000602454148061189d57506001602454145b6118f2576040517f08c379a000000000000000000000000000000000000000000000000000000000815260040180806020018281038252603a8152602001806126e5603a913960400191505060405180910390fd5b6002601c541461196a576040517f08c379a00000000000000000000000000000000000000000000000000000000081526004018080602001828103825260178152602001807f4177616974696e67204f7468657220506c61796572202100000000000000000081525060200191505060405180910390fd5b602260006002811061197857fe5b0160009054906101000a900473ffffffffffffffffffffffffffffffffffffffff1673ffffffffffffffffffffffffffffffffffffffff163373ffffffffffffffffffffffffffffffffffffffff161480611a2d575060226001600281106119dc57fe5b0160009054906101000a900473ffffffffffffffffffffffffffffffffffffffff1673ffffffffffffffffffffffffffffffffffffffff163373ffffffffffffffffffffffffffffffffffffffff16145b611a9f576040517f08c379a000000000000000000000000000000000000000000000000000000000815260040180806020018281038252601f8152602001807f596f7520617265206e6f74207265676973746572656420746f20706c61792e0081525060200191505060405180910390fd5b6001600260255481611aad57fe5b06148015611abd57506000602454145b15611cc5576022600060028110611ad057fe5b0160009054906101000a900473ffffffffffffffffffffffffffffffffffffffff1673ffffffffffffffffffffffffffffffffffffffff163373ffffffffffffffffffffffffffffffffffffffff1614611b92576040517f08c379a00000000000000000000000000000000000000000000000000000000081526004018080602001828103825260178152602001807f497420697320506c61796572312773205475726e20212100000000000000000081525060200191505060405180910390fd5b600282826040516020018083815260200182805190602001908083835b60208310611bd25780518252602082019150602081019050602083039250611baf565b6001836020036101000a038019825116818451168082178552505050505050905001925050506040516020818303038152906040526040518082805190602001908083835b60208310611c3a5780518252602082019150602081019050602083039250611c17565b6001836020036101000a038019825116818451168082178552505050505050905001915050602060405180830381855afa158015611c7c573d6000803e3d6000fd5b5050506040513d6020811015611c9157600080fd5b8101908080519060200190929190505050602881905550600160246000828254019250508190555042601f81905550612336565b6001600260255481611cd357fe5b06148015611ce357506001602454145b15611eeb576022600160028110611cf657fe5b0160009054906101000a900473ffffffffffffffffffffffffffffffffffffffff1673ffffffffffffffffffffffffffffffffffffffff163373ffffffffffffffffffffffffffffffffffffffff1614611db8576040517f08c379a00000000000000000000000000000000000000000000000000000000081526004018080602001828103825260178152602001807f497420697320506c61796572322773205475726e20212100000000000000000081525060200191505060405180910390fd5b600282826040516020018083815260200182805190602001908083835b60208310611df85780518252602082019150602081019050602083039250611dd5565b6001836020036101000a038019825116818451168082178552505050505050905001925050506040516020818303038152906040526040518082805190602001908083835b60208310611e605780518252602082019150602081019050602083039250611e3d565b6001836020036101000a038019825116818451168082178552505050505050905001915050602060405180830381855afa158015611ea2573d6000803e3d6000fd5b5050506040513d6020811015611eb757600080fd5b8101908080519060200190929190505050602981905550600160246000828254019250508190555042601f81905550612335565b6000600260255481611ef957fe5b06148015611f0957506000602454145b15612111576022600160028110611f1c57fe5b0160009054906101000a900473ffffffffffffffffffffffffffffffffffffffff1673ffffffffffffffffffffffffffffffffffffffff163373ffffffffffffffffffffffffffffffffffffffff1614611fde576040517f08c379a00000000000000000000000000000000000000000000000000000000081526004018080602001828103825260178152602001807f497420697320506c61796572322773205475726e20212100000000000000000081525060200191505060405180910390fd5b600282826040516020018083815260200182805190602001908083835b6020831061201e5780518252602082019150602081019050602083039250611ffb565b6001836020036101000a038019825116818451168082178552505050505050905001925050506040516020818303038152906040526040518082805190602001908083835b602083106120865780518252602082019150602081019050602083039250612063565b6001836020036101000a038019825116818451168082178552505050505050905001915050602060405180830381855afa1580156120c8573d6000803e3d6000fd5b5050506040513d60208110156120dd57600080fd5b8101908080519060200190929190505050602981905550600160246000828254019250508190555042601f81905550612334565b600060026025548161211f57fe5b0614801561212f57506001602454145b1561233357602260006002811061214257fe5b0160009054906101000a900473ffffffffffffffffffffffffffffffffffffffff1673ffffffffffffffffffffffffffffffffffffffff163373ffffffffffffffffffffffffffffffffffffffff1614612204576040517f08c379a00000000000000000000000000000000000000000000000000000000081526004018080602001828103825260178152602001807f497420697320506c61796572312773205475726e20212100000000000000000081525060200191505060405180910390fd5b600282826040516020018083815260200182805190602001908083835b602083106122445780518252602082019150602081019050602083039250612221565b6001836020036101000a038019825116818451168082178552505050505050905001925050506040516020818303038152906040526040518082805190602001908083835b602083106122ac5780518252602082019150602081019050602083039250612289565b6001836020036101000a038019825116818451168082178552505050505050905001915050602060405180830381855afa1580156122ee573d6000803e3d6000fd5b5050506040513d602081101561230357600080fd5b8101908080519060200190929190505050602881905550600160246000828254019250508190555042601f819055505b5b5b5b5050565b602c816003811061234757fe5b016000915090505481565b60006020528060005260406000206000915090505481565b6022816002811061237757fe5b016000915054906101000a900473ffffffffffffffffffffffffffffffffffffffff1681565b602060009054906101000a900473ffffffffffffffffffffffffffffffffffffffff1673ffffffffffffffffffffffffffffffffffffffff163373ffffffffffffffffffffffffffffffffffffffff161415612461576040517f08c379a000000000000000000000000000000000000000000000000000000000815260040180806020018281038252601f8152602001807f41646d696e2043616e6e6f742075736520746869732066756e6374696f6e2e0081525060200191505060405180910390fd5b602260006002811061246f57fe5b0160009054906101000a900473ffffffffffffffffffffffffffffffffffffffff1673ffffffffffffffffffffffffffffffffffffffff163373ffffffffffffffffffffffffffffffffffffffff1614612531576040517f08c379a000000000000000000000000000000000000000000000000000000000815260040180806020018281038252601d8152602001807f4f6e6c7920706c61796572312063616e20696e766f6b6520746869732e00000081525060200191505060405180910390fd5b6001601c54146125a9576040517f08c379a000000000000000000000000000000000000000000000000000000000815260040180806020018281038252601c8152602001807f43616e6e6f7420696e766f6b6520746869732066756e6374696f6e2e0000000081525060200191505060405180910390fd5b42600a601d6000600281106125ba57fe5b01540110612630576040517f08c379a000000000000000000000000000000000000000000000000000000000815260040180806020018281038252601f8152602001807f506c65617365207761697420666f7220736f6d65206d6f72652074696d652e0081525060200191505060405180910390fd5b602260006002811061263e57fe5b0160009054906101000a900473ffffffffffffffffffffffffffffffffffffffff1673ffffffffffffffffffffffffffffffffffffffff166108fc6001549081150290604051600060405180830381858888f193505050501580156126a7573d6000803e3d6000fd5b506000601d6000600281106126b857fe5b01819055506000601d6001600281106126cd57fe5b01819055506000601c819055506126e2610e56565b56fe4d6f7665732073746f7265642c206e6f7720626f74682052657665616c2043686f6963657320616e642073656c6563742067657457696e6e657254686973206164647265737320697320616c72656164792072656769737465726564536f6d656f6e65206973207374696c6c2079657420746f2072657665616c2074686569722063686f69636573506c65617365207761697420666f72206f7468657220706c6179657220746f20636f6d6d6974a165627a7a72305820e4bba220232d8165f31dbb5f7666d93887470e0e6993c9825b5c261ca64c56cd0029",
  "source": "pragma solidity >=0.5.2 <0.6.0;\n\ncontract SPSLS\n{\n    mapping(address=> uint256) public balance;\n    uint fee;\n    int[5][5] matrix;\n    uint number_of_games;\n    uint public current_number_of_players;\n    uint[2] reg_time;\n    uint lastchanceat;\n    address payable admin;\n    address adr;\n    address payable [2] public players;\n    uint public current_turn;\n    uint public current_game;\n    uint public choice1;\n    uint public choice2;\n    bytes32 hash1;\n    bytes32 hash2;\n    uint winner;\n    uint public win;\n    uint[3] public scoreboard;\n    uint[5][5] public game_matrix;\n    \n    constructor() public\n    {\n        admin=msg.sender;\n        balance[admin] = 1000;\n        fee=5 ether;\n        current_number_of_players=0;\n        number_of_games=10;\n        players[0]=0x0000000000000000000000000000000000000000;\n        players[1]=0x0000000000000000000000000000000000000000;\n        reg_time[0]=0;\n        reg_time[1]=0;\n        current_turn=0;\n        current_game=1;\n        game_matrix=[[0, 2, 1, 1, 2],[1, 0, 2, 2, 1],[2, 1, 0, 1, 2],[2, 1, 2, 0, 1],[1, 2, 1, 2, 0]];\n        scoreboard=[0,0,0];\n        choice1=10;\n        choice2=10;\n        winner=3;\n    }\n    \n    function reset_to_defaults() public\n    {\n        number_of_games=10;\n        players[0]=0x0000000000000000000000000000000000000000;\n        players[1]=0x0000000000000000000000000000000000000000;\n        reg_time[0]=0;\n        reg_time[1]=0;\n        current_turn=0;\n        current_game=1;\n        choice1=10;\n        choice2=10;\n        winner=3;\n    }\n    \n    function register_as_player() public payable\n    {\n        require(msg.sender!=admin,\"Admin Cannot Register\");\n        require(current_number_of_players<2,\"Room Already Full!!\");\n        require(msg.value==fee,\"Send Exact Fee (Only Ether)\");\n        if(current_number_of_players==1)\n            require(msg.sender!=players[0],\"This address is already registered\");\n        \n        players[current_number_of_players]=msg.sender;\n        reg_time[current_number_of_players]=now;\n        current_number_of_players++;\n        if(current_number_of_players==2)\n        {\n            current_turn=0;\n            current_game=1;\n            lastchanceat=now;\n        }\n    }\n    \n    function p2_not_present_refund() public\n    {\n        require(msg.sender!=admin,\"Admin Cannot use this function.\");\n        require(msg.sender==players[0],\"Only player1 can invoke this.\");\n        require(current_number_of_players==1,\"Cannot invoke this function.\");\n        require(reg_time[0] + 10 seconds < now,\"Please wait for some more time.\");\n        players[0].transfer(fee);\n        reg_time[0]=0;\n        reg_time[1]=0;\n        current_number_of_players=0;\n        reset_to_defaults();\n    }\n    \n    function inactivity_claim() public\n    {\n        require(current_number_of_players==2, \"Room not full, Please wait\");\n        \n        if(msg.sender==players[1])\n        {\n            if((current_game%2==1 && current_turn==0) || (current_game%2==0 && current_turn==1))\n            {\n                require(lastchanceat+10 seconds < now,\"Too Early to Claim, please wait\");\n                players[1].transfer(2*fee);\n                reset_to_defaults();\n                reg_time[0]=0;\n                reg_time[1]=0;\n            current_number_of_players=0;\n            }\n        }\n        else if(msg.sender==players[0])\n        {\n            if((current_game%2==1 && current_turn==1) || (current_game%2==0 && current_turn==0))\n            {\n                require(lastchanceat+10 seconds < now,\"Too Early to Claim, please wait\");\n                players[0].transfer(2*fee);\n                reset_to_defaults();\n                reg_time[0]=0;\n                reg_time[1]=0;\n            current_number_of_players=0;\n            }\n        }\n    }\n    \n    function play(uint ch,string memory key) public\n    {\n        require(current_turn==0 || current_turn==1,\"Moves stored, now both Reveal Choices and select getWinner\");\n        require(current_number_of_players==2,\"Awaiting Other Player !\");\n        require(msg.sender==players[0] || msg.sender==players[1],\"You are not registered to play.\");\n        \n        if(current_game%2==1 && current_turn==0)\n        {\n            require(msg.sender==players[0],\"It is Player1's Turn !!\");\n            hash1=sha256(abi.encodePacked(ch,key));\n            current_turn+=1;\n            lastchanceat=now;\n        }\n        else if(current_game%2==1 && current_turn==1)\n        {\n            require(msg.sender==players[1],\"It is Player2's Turn !!\");\n            hash2=sha256(abi.encodePacked(ch,key));\n            current_turn+=1;\n            lastchanceat=now;\n        }\n        else if(current_game%2==0 && current_turn==0)\n        {\n            require(msg.sender==players[1],\"It is Player2's Turn !!\");\n            hash2=sha256(abi.encodePacked(ch,key));\n            current_turn+=1;\n            lastchanceat=now;\n        }\n        else if(current_game%2==0 && current_turn==1)\n        {\n            require(msg.sender==players[0],\"It is Player1's Turn !!\");\n            hash1=sha256(abi.encodePacked(ch,key));\n            current_turn+=1;\n            lastchanceat=now;\n        }\n\n    }\n    \n    function reveal(uint ch,string memory key) public\n    {\n        bytes32 testhash;\n        require(msg.sender==players[0] || msg.sender==players[1],\"You are not registered to play.\");\n        require(current_turn==2,\"Please wait for other player to commit\");\n        if(msg.sender==players[0])\n        {\n            testhash=sha256(abi.encodePacked(ch,key));\n            if(testhash!=hash1)\n            {\n                players[1].transfer(2*fee);\n                reset_to_defaults();\n            }\n            choice1=ch;\n        }\n        if(msg.sender==players[1])\n        {\n            testhash=sha256(abi.encodePacked(ch,key));\n            if(testhash!=hash2)\n            {\n                players[0].transfer(2*fee);\n                reset_to_defaults();\n            }\n            choice2=ch;\n        }\n    }\n    \n    function getWinner() public\n    {\n        bool val=(msg.sender==players[0] || msg.sender==players[1]);\n        require(val==true,\"Only registered players allowed\");\n        require(choice1!=10 && choice2!=10,\"Someone is still yet to reveal their choices\");\n        winner=game_matrix[choice1-1][choice2-1];\n        win = winner;\n        scoreboard[winner]++;\n        \n        if(current_game==number_of_games)\n        {\n            if(scoreboard[1]==scoreboard[2])\n            {\n                players[0].transfer(fee);\n                players[1].transfer(fee);\n            }\n            else if(scoreboard[1]>scoreboard[2])\n            {\n                players[0].transfer(2*fee);\n            }\n            else\n            {\n                players[1].transfer(2*fee);\n            }\n            reg_time[0]=0;\n            reg_time[1]=0;\n            current_number_of_players=0;\n            reset_to_defaults();\n        }\n        current_game++;\n        current_turn=0;\n        choice1=10;\n        choice2=10;\n        winner=3;\n    }\n    \n}",
  "sourcePath": "/home/ksvsc/IIITH/Monsoon19/Block Chain/Assignment1/My_Contract/SPSLS/contracts/SPSLS.sol",
  "compiler": {
    "name": "solc",
    "version": "0.5.8+commit.23d335f2.Emscripten.clang"
  },
  "schemaVersion": "3.0.15",
  "updatedAt": "2019-09-17T08:06:18.235Z",
  "devdoc": {
    "methods": {}
  },
  "userdoc": {
    "methods": {}
  }
}