{
  "contractName": "SPSLS",
  "abi": [
    {
      "constant": true,
      "inputs": [],
      "name": "current_game",
      "outputs": [
        {
          "name": "",
          "type": "uint256"
        }
      ],
      "payable": false,
      "stateMutability": "view",
      "type": "function"
    },
    {
      "constant": true,
      "inputs": [],
      "name": "choice1",
      "outputs": [
        {
          "name": "",
          "type": "uint256"
        }
      ],
      "payable": false,
      "stateMutability": "view",
      "type": "function"
    },
    {
      "constant": true,
      "inputs": [],
      "name": "current_turn",
      "outputs": [
        {
          "name": "",
          "type": "uint256"
        }
      ],
      "payable": false,
      "stateMutability": "view",
      "type": "function"
    },
    {
      "constant": true,
      "inputs": [],
      "name": "choice2",
      "outputs": [
        {
          "name": "",
          "type": "uint256"
        }
      ],
      "payable": false,
      "stateMutability": "view",
      "type": "function"
    },
    {
      "constant": true,
      "inputs": [],
      "name": "current_number_of_players",
      "outputs": [
        {
          "name": "",
          "type": "uint256"
        }
      ],
      "payable": false,
      "stateMutability": "view",
      "type": "function"
    },
    {
      "constant": true,
      "inputs": [
        {
          "name": "",
          "type": "uint256"
        },
        {
          "name": "",
          "type": "uint256"
        }
      ],
      "name": "game_matrix",
      "outputs": [
        {
          "name": "",
          "type": "uint256"
        }
      ],
      "payable": false,
      "stateMutability": "view",
      "type": "function"
    },
    {
      "constant": true,
      "inputs": [
        {
          "name": "",
          "type": "uint256"
        }
      ],
      "name": "scoreboard",
      "outputs": [
        {
          "name": "",
          "type": "uint256"
        }
      ],
      "payable": false,
      "stateMutability": "view",
      "type": "function"
    },
    {
      "constant": true,
      "inputs": [
        {
          "name": "",
          "type": "address"
        }
      ],
      "name": "balance",
      "outputs": [
        {
          "name": "",
          "type": "uint256"
        }
      ],
      "payable": false,
      "stateMutability": "view",
      "type": "function"
    },
    {
      "constant": true,
      "inputs": [
        {
          "name": "",
          "type": "uint256"
        }
      ],
      "name": "players",
      "outputs": [
        {
          "name": "",
          "type": "address"
        }
      ],
      "payable": false,
      "stateMutability": "view",
      "type": "function"
    },
    {
      "inputs": [],
      "payable": false,
      "stateMutability": "nonpayable",
      "type": "constructor"
    },
    {
      "constant": false,
      "inputs": [],
      "name": "reset_to_defaults",
      "outputs": [],
      "payable": false,
      "stateMutability": "nonpayable",
      "type": "function"
    },
    {
      "constant": false,
      "inputs": [],
      "name": "register_as_player",
      "outputs": [],
      "payable": true,
      "stateMutability": "payable",
      "type": "function"
    },
    {
      "constant": false,
      "inputs": [],
      "name": "p2_not_present_refund",
      "outputs": [],
      "payable": false,
      "stateMutability": "nonpayable",
      "type": "function"
    },
    {
      "constant": false,
      "inputs": [],
      "name": "inactivity_claim",
      "outputs": [],
      "payable": false,
      "stateMutability": "nonpayable",
      "type": "function"
    },
    {
      "constant": false,
      "inputs": [
        {
          "name": "ch",
          "type": "uint256"
        },
        {
          "name": "key",
          "type": "string"
        }
      ],
      "name": "play",
      "outputs": [],
      "payable": false,
      "stateMutability": "nonpayable",
      "type": "function"
    },
    {
      "constant": false,
      "inputs": [
        {
          "name": "ch",
          "type": "uint256"
        },
        {
          "name": "key",
          "type": "string"
        }
      ],
      "name": "reveal",
      "outputs": [],
      "payable": false,
      "stateMutability": "nonpayable",
      "type": "function"
    },
    {
      "constant": false,
      "inputs": [],
      "name": "getWinner",
      "outputs": [
        {
          "name": "w",
          "type": "uint256"
        }
      ],
      "payable": false,
      "stateMutability": "nonpayable",
      "type": "function"
    }
  ],
  "bytecode": "0x60806040523480156200001157600080fd5b5033602060006101000a81548173ffffffffffffffffffffffffffffffffffffffff021916908373ffffffffffffffffffffffffffffffffffffffff1602179055506103e8600080602060009054906101000a900473ffffffffffffffffffffffffffffffffffffffff1673ffffffffffffffffffffffffffffffffffffffff1673ffffffffffffffffffffffffffffffffffffffff16815260200190815260200160002081905550674563918244f400006001819055506000601c819055506003601b8190555060006022600060028110620000ea57fe5b0160006101000a81548173ffffffffffffffffffffffffffffffffffffffff021916908373ffffffffffffffffffffffffffffffffffffffff160217905550600060226001600281106200013a57fe5b0160006101000a81548173ffffffffffffffffffffffffffffffffffffffff021916908373ffffffffffffffffffffffffffffffffffffffff1602179055506000601d6000600281106200018a57fe5b01819055506000601d600160028110620001a057fe5b0181905550600060248190555060016025819055506040518060a001604052806040518060a00160405280600060ff168152602001600260ff168152602001600160ff168152602001600160ff168152602001600260ff1681525081526020016040518060a00160405280600160ff168152602001600060ff168152602001600260ff168152602001600260ff168152602001600160ff1681525081526020016040518060a00160405280600260ff168152602001600160ff168152602001600060ff168152602001600160ff168152602001600260ff1681525081526020016040518060a00160405280600260ff168152602001600160ff168152602001600260ff168152602001600060ff168152602001600160ff1681525081526020016040518060a00160405280600160ff168152602001600260ff168152602001600160ff168152602001600260ff168152602001600060ff16815250815250602f9060056200031092919062000369565b506040518060600160405280600060ff168152602001600060ff168152602001600060ff16815250602c9060036200034a929190620003c0565b50600a602681905550600a6027819055506003602a81905550620004d0565b82600580028101928215620003ad579160200282015b82811115620003ac578251829060056200039b9291906200040a565b50916020019190600501906200037f565b5b509050620003bc919062000454565b5090565b8260038101928215620003f7579160200282015b82811115620003f6578251829060ff16905591602001919060010190620003d4565b5b50905062000406919062000485565b5090565b826005810192821562000441579160200282015b8281111562000440578251829060ff169055916020019190600101906200041e565b5b50905062000450919062000485565b5090565b6200048291905b808211156200047e5760008181620004749190620004ad565b506005016200045b565b5090565b90565b620004aa91905b80821115620004a65760008160009055506001016200048c565b5090565b90565b506000815560010160008155600101600081556001016000815560010160009055565b61279d80620004e06000396000f3fe6080604052600436106100f35760003560e01c80638e2f71351161008a578063d75ffdcf11610059578063d75ffdcf1461042f578063e3d670d71461047e578063f71d96cb146104e3578063fa7830001461055e576100f3565b80638e2f7135146102ae5780638e7ea5b2146102d9578063a45c7c8814610304578063c9cb6eeb1461035d576100f3565b806349e811c5116100c657806349e811c51461021657806350ae9daf1461024157806387cfa5bf1461026c5780638b20a00c14610297576100f3565b8063185f0516146100f85780631a610517146101235780632fa4548b1461012d57806339289d19146101ff575b600080fd5b34801561010457600080fd5b5061010d610575565b6040518082815260200191505060405180910390f35b61012b61057b565b005b34801561013957600080fd5b506101fd6004803603604081101561015057600080fd5b81019080803590602001909291908035906020019064010000000081111561017757600080fd5b82018360208201111561018957600080fd5b803590602001918460018302840111640100000000831117156101ab57600080fd5b91908080601f016020809104026020016040519081016040528093929190818152602001838380828437600081840152601f19601f820116905080830192505050505050509192919290505050610889565b005b34801561020b57600080fd5b50610214610e34565b005b34801561022257600080fd5b5061022b610f2e565b6040518082815260200191505060405180910390f35b34801561024d57600080fd5b50610256610f34565b6040518082815260200191505060405180910390f35b34801561027857600080fd5b50610281610f3a565b6040518082815260200191505060405180910390f35b3480156102a357600080fd5b506102ac610f40565b005b3480156102ba57600080fd5b506102c3611377565b6040518082815260200191505060405180910390f35b3480156102e557600080fd5b506102ee61137d565b6040518082815260200191505060405180910390f35b34801561031057600080fd5b506103476004803603604081101561032757600080fd5b810190808035906020019092919080359060200190929190505050611841565b6040518082815260200191505060405180910390f35b34801561036957600080fd5b5061042d6004803603604081101561038057600080fd5b8101908080359060200190929190803590602001906401000000008111156103a757600080fd5b8201836020820111156103b957600080fd5b803590602001918460018302840111640100000000831117156103db57600080fd5b91908080601f016020809104026020016040519081016040528093929190818152602001838380828437600081840152601f19601f820116905080830192505050505050509192919290505050611869565b005b34801561043b57600080fd5b506104686004803603602081101561045257600080fd5b8101908080359060200190929190505050612319565b6040518082815260200191505060405180910390f35b34801561048a57600080fd5b506104cd600480360360208110156104a157600080fd5b81019080803573ffffffffffffffffffffffffffffffffffffffff169060200190929190505050612331565b6040518082815260200191505060405180910390f35b3480156104ef57600080fd5b5061051c6004803603602081101561050657600080fd5b8101908080359060200190929190505050612349565b604051808273ffffffffffffffffffffffffffffffffffffffff1673ffffffffffffffffffffffffffffffffffffffff16815260200191505060405180910390f35b34801561056a57600080fd5b5061057361237c565b005b60255481565b602060009054906101000a900473ffffffffffffffffffffffffffffffffffffffff1673ffffffffffffffffffffffffffffffffffffffff163373ffffffffffffffffffffffffffffffffffffffff16141561063f576040517f08c379a00000000000000000000000000000000000000000000000000000000081526004018080602001828103825260158152602001807f41646d696e2043616e6e6f74205265676973746572000000000000000000000081525060200191505060405180910390fd5b6002601c54106106b7576040517f08c379a00000000000000000000000000000000000000000000000000000000081526004018080602001828103825260138152602001807f526f6f6d20416c72656164792046756c6c21210000000000000000000000000081525060200191505060405180910390fd5b600154341461072e576040517f08c379a000000000000000000000000000000000000000000000000000000000815260040180806020018281038252601b8152602001807f53656e642045786163742046656520284f6e6c7920457468657229000000000081525060200191505060405180910390fd5b6001601c5414156107ee57602260006002811061074757fe5b0160009054906101000a900473ffffffffffffffffffffffffffffffffffffffff1673ffffffffffffffffffffffffffffffffffffffff163373ffffffffffffffffffffffffffffffffffffffff1614156107ed576040517f08c379a00000000000000000000000000000000000000000000000000000000081526004018080602001828103825260228152602001806126fe6022913960400191505060405180910390fd5b5b336022601c54600281106107fe57fe5b0160006101000a81548173ffffffffffffffffffffffffffffffffffffffff021916908373ffffffffffffffffffffffffffffffffffffffff16021790555042601d601c546002811061084d57fe5b0181905550601c600081548092919060010191905055506002601c541415610887576000602481905550600160258190555042601f819055505b565b6000602260006002811061089957fe5b0160009054906101000a900473ffffffffffffffffffffffffffffffffffffffff1673ffffffffffffffffffffffffffffffffffffffff163373ffffffffffffffffffffffffffffffffffffffff16148061094e575060226001600281106108fd57fe5b0160009054906101000a900473ffffffffffffffffffffffffffffffffffffffff1673ffffffffffffffffffffffffffffffffffffffff163373ffffffffffffffffffffffffffffffffffffffff16145b6109c0576040517f08c379a000000000000000000000000000000000000000000000000000000000815260040180806020018281038252601f8152602001807f596f7520617265206e6f74207265676973746572656420746f20706c61792e0081525060200191505060405180910390fd5b600260245414610a1b576040517f08c379a000000000000000000000000000000000000000000000000000000000815260040180806020018281038252602681526020018061274c6026913960400191505060405180910390fd5b6022600060028110610a2957fe5b0160009054906101000a900473ffffffffffffffffffffffffffffffffffffffff1673ffffffffffffffffffffffffffffffffffffffff163373ffffffffffffffffffffffffffffffffffffffff161415610c2557600283836040516020018083815260200182805190602001908083835b60208310610abe5780518252602082019150602081019050602083039250610a9b565b6001836020036101000a038019825116818451168082178552505050505050905001925050506040516020818303038152906040526040518082805190602001908083835b60208310610b265780518252602082019150602081019050602083039250610b03565b6001836020036101000a038019825116818451168082178552505050505050905001915050602060405180830381855afa158015610b68573d6000803e3d6000fd5b5050506040513d6020811015610b7d57600080fd5b810190808051906020019092919050505090506028548114610c1d576022600160028110610ba757fe5b0160009054906101000a900473ffffffffffffffffffffffffffffffffffffffff1673ffffffffffffffffffffffffffffffffffffffff166108fc6001546002029081150290604051600060405180830381858888f19350505050158015610c13573d6000803e3d6000fd5b50610c1c610e34565b5b826026819055505b6022600160028110610c3357fe5b0160009054906101000a900473ffffffffffffffffffffffffffffffffffffffff1673ffffffffffffffffffffffffffffffffffffffff163373ffffffffffffffffffffffffffffffffffffffff161415610e2f57600283836040516020018083815260200182805190602001908083835b60208310610cc85780518252602082019150602081019050602083039250610ca5565b6001836020036101000a038019825116818451168082178552505050505050905001925050506040516020818303038152906040526040518082805190602001908083835b60208310610d305780518252602082019150602081019050602083039250610d0d565b6001836020036101000a038019825116818451168082178552505050505050905001915050602060405180830381855afa158015610d72573d6000803e3d6000fd5b5050506040513d6020811015610d8757600080fd5b810190808051906020019092919050505090506029548114610e27576022600060028110610db157fe5b0160009054906101000a900473ffffffffffffffffffffffffffffffffffffffff1673ffffffffffffffffffffffffffffffffffffffff166108fc6001546002029081150290604051600060405180830381858888f19350505050158015610e1d573d6000803e3d6000fd5b50610e26610e34565b5b826027819055505b505050565b6001601b8190555060006022600060028110610e4c57fe5b0160006101000a81548173ffffffffffffffffffffffffffffffffffffffff021916908373ffffffffffffffffffffffffffffffffffffffff16021790555060006022600160028110610e9b57fe5b0160006101000a81548173ffffffffffffffffffffffffffffffffffffffff021916908373ffffffffffffffffffffffffffffffffffffffff1602179055506000601d600060028110610eea57fe5b01819055506000601d600160028110610eff57fe5b018190555060006024819055506001602581905550600a602681905550600a6027819055506003602a81905550565b60265481565b60245481565b60275481565b6002601c5414610fb8576040517f08c379a000000000000000000000000000000000000000000000000000000000815260040180806020018281038252601a8152602001807f526f6f6d206e6f742066756c6c2c20506c65617365207761697400000000000081525060200191505060405180910390fd5b6022600060028110610fc657fe5b0160009054906101000a900473ffffffffffffffffffffffffffffffffffffffff1673ffffffffffffffffffffffffffffffffffffffff163373ffffffffffffffffffffffffffffffffffffffff16141561119857600160026025548161102957fe5b0614801561103957506000602454145b8061105e5750600060026025548161104d57fe5b0614801561105d57506001602454145b5b156111935742601e601f5401106110dd576040517f08c379a000000000000000000000000000000000000000000000000000000000815260040180806020018281038252601f8152602001807f546f6f204561726c7920746f20436c61696d2c20706c6561736520776169740081525060200191505060405180910390fd5b60226000600281106110eb57fe5b0160009054906101000a900473ffffffffffffffffffffffffffffffffffffffff1673ffffffffffffffffffffffffffffffffffffffff166108fc6001546002029081150290604051600060405180830381858888f19350505050158015611157573d6000803e3d6000fd5b50611160610e34565b6000601d60006002811061117057fe5b01819055506000601d60016002811061118557fe5b01819055506000601c819055505b611375565b60226001600281106111a657fe5b0160009054906101000a900473ffffffffffffffffffffffffffffffffffffffff1673ffffffffffffffffffffffffffffffffffffffff163373ffffffffffffffffffffffffffffffffffffffff16141561137457600160026025548161120957fe5b0614801561121957506001602454145b8061123e5750600060026025548161122d57fe5b0614801561123d57506000602454145b5b156113735742601e601f5401106112bd576040517f08c379a000000000000000000000000000000000000000000000000000000000815260040180806020018281038252601f8152602001807f546f6f204561726c7920746f20436c61696d2c20706c6561736520776169740081525060200191505060405180910390fd5b60226001600281106112cb57fe5b0160009054906101000a900473ffffffffffffffffffffffffffffffffffffffff1673ffffffffffffffffffffffffffffffffffffffff166108fc6001546002029081150290604051600060405180830381858888f19350505050158015611337573d6000803e3d6000fd5b50611340610e34565b6000601d60006002811061135057fe5b01819055506000601d60016002811061136557fe5b01819055506000601c819055505b5b5b565b601c5481565b600080602260006002811061138e57fe5b0160009054906101000a900473ffffffffffffffffffffffffffffffffffffffff1673ffffffffffffffffffffffffffffffffffffffff163373ffffffffffffffffffffffffffffffffffffffff161480611443575060226001600281106113f257fe5b0160009054906101000a900473ffffffffffffffffffffffffffffffffffffffff1673ffffffffffffffffffffffffffffffffffffffff163373ffffffffffffffffffffffffffffffffffffffff16145b905060011515811515146114bf576040517f08c379a000000000000000000000000000000000000000000000000000000000815260040180806020018281038252601f8152602001807f4f6e6c79207265676973746572656420706c617965727320616c6c6f7765640081525060200191505060405180910390fd5b600a602654141580156114d55750600a60275414155b61152a576040517f08c379a000000000000000000000000000000000000000000000000000000000815260040180806020018281038252602c815260200180612720602c913960400191505060405180910390fd5b602f6001602654036005811061153c57fe5b600502016001602754036005811061155057fe5b0154602a81905550602a54602b81905550602c602a546003811061157057fe5b0160008154809291906001019190505550601b54602554141561180657602c60026003811061159b57fe5b0154602c6001600381106115ab57fe5b015414156116a85760226000600281106115c157fe5b0160009054906101000a900473ffffffffffffffffffffffffffffffffffffffff1673ffffffffffffffffffffffffffffffffffffffff166108fc6001549081150290604051600060405180830381858888f1935050505015801561162a573d6000803e3d6000fd5b50602260016002811061163957fe5b0160009054906101000a900473ffffffffffffffffffffffffffffffffffffffff1673ffffffffffffffffffffffffffffffffffffffff166108fc6001549081150290604051600060405180830381858888f193505050501580156116a2573d6000803e3d6000fd5b506117cb565b602c6002600381106116b657fe5b0154602c6001600381106116c657fe5b0154111561174e5760226000600281106116dc57fe5b0160009054906101000a900473ffffffffffffffffffffffffffffffffffffffff1673ffffffffffffffffffffffffffffffffffffffff166108fc6001546002029081150290604051600060405180830381858888f19350505050158015611748573d6000803e3d6000fd5b506117ca565b602260016002811061175c57fe5b0160009054906101000a900473ffffffffffffffffffffffffffffffffffffffff1673ffffffffffffffffffffffffffffffffffffffff166108fc6001546002029081150290604051600060405180830381858888f193505050501580156117c8573d6000803e3d6000fd5b505b5b6000601d6000600281106117db57fe5b01819055506000601d6001600281106117f057fe5b01819055506000601c81905550611805610e34565b5b6025600081548092919060010191905055506000602481905550600a602681905550600a6027819055506003602a81905550602b5491505090565b602f826005811061184e57fe5b60050201816005811061185d57fe5b01600091509150505481565b6000602454148061187c57506001602454145b6118d1576040517f08c379a000000000000000000000000000000000000000000000000000000000815260040180806020018281038252603a8152602001806126c4603a913960400191505060405180910390fd5b6002601c5414611949576040517f08c379a00000000000000000000000000000000000000000000000000000000081526004018080602001828103825260178152602001807f4177616974696e67204f7468657220506c61796572202100000000000000000081525060200191505060405180910390fd5b602260006002811061195757fe5b0160009054906101000a900473ffffffffffffffffffffffffffffffffffffffff1673ffffffffffffffffffffffffffffffffffffffff163373ffffffffffffffffffffffffffffffffffffffff161480611a0c575060226001600281106119bb57fe5b0160009054906101000a900473ffffffffffffffffffffffffffffffffffffffff1673ffffffffffffffffffffffffffffffffffffffff163373ffffffffffffffffffffffffffffffffffffffff16145b611a7e576040517f08c379a000000000000000000000000000000000000000000000000000000000815260040180806020018281038252601f8152602001807f596f7520617265206e6f74207265676973746572656420746f20706c61792e0081525060200191505060405180910390fd5b6001600260255481611a8c57fe5b06148015611a9c57506000602454145b15611ca4576022600060028110611aaf57fe5b0160009054906101000a900473ffffffffffffffffffffffffffffffffffffffff1673ffffffffffffffffffffffffffffffffffffffff163373ffffffffffffffffffffffffffffffffffffffff1614611b71576040517f08c379a00000000000000000000000000000000000000000000000000000000081526004018080602001828103825260178152602001807f497420697320506c61796572312773205475726e20212100000000000000000081525060200191505060405180910390fd5b600282826040516020018083815260200182805190602001908083835b60208310611bb15780518252602082019150602081019050602083039250611b8e565b6001836020036101000a038019825116818451168082178552505050505050905001925050506040516020818303038152906040526040518082805190602001908083835b60208310611c195780518252602082019150602081019050602083039250611bf6565b6001836020036101000a038019825116818451168082178552505050505050905001915050602060405180830381855afa158015611c5b573d6000803e3d6000fd5b5050506040513d6020811015611c7057600080fd5b8101908080519060200190929190505050602881905550600160246000828254019250508190555042601f81905550612315565b6001600260255481611cb257fe5b06148015611cc257506001602454145b15611eca576022600160028110611cd557fe5b0160009054906101000a900473ffffffffffffffffffffffffffffffffffffffff1673ffffffffffffffffffffffffffffffffffffffff163373ffffffffffffffffffffffffffffffffffffffff1614611d97576040517f08c379a00000000000000000000000000000000000000000000000000000000081526004018080602001828103825260178152602001807f497420697320506c61796572322773205475726e20212100000000000000000081525060200191505060405180910390fd5b600282826040516020018083815260200182805190602001908083835b60208310611dd75780518252602082019150602081019050602083039250611db4565b6001836020036101000a038019825116818451168082178552505050505050905001925050506040516020818303038152906040526040518082805190602001908083835b60208310611e3f5780518252602082019150602081019050602083039250611e1c565b6001836020036101000a038019825116818451168082178552505050505050905001915050602060405180830381855afa158015611e81573d6000803e3d6000fd5b5050506040513d6020811015611e9657600080fd5b8101908080519060200190929190505050602981905550600160246000828254019250508190555042601f81905550612314565b6000600260255481611ed857fe5b06148015611ee857506000602454145b156120f0576022600160028110611efb57fe5b0160009054906101000a900473ffffffffffffffffffffffffffffffffffffffff1673ffffffffffffffffffffffffffffffffffffffff163373ffffffffffffffffffffffffffffffffffffffff1614611fbd576040517f08c379a00000000000000000000000000000000000000000000000000000000081526004018080602001828103825260178152602001807f497420697320506c61796572322773205475726e20212100000000000000000081525060200191505060405180910390fd5b600282826040516020018083815260200182805190602001908083835b60208310611ffd5780518252602082019150602081019050602083039250611fda565b6001836020036101000a038019825116818451168082178552505050505050905001925050506040516020818303038152906040526040518082805190602001908083835b602083106120655780518252602082019150602081019050602083039250612042565b6001836020036101000a038019825116818451168082178552505050505050905001915050602060405180830381855afa1580156120a7573d6000803e3d6000fd5b5050506040513d60208110156120bc57600080fd5b8101908080519060200190929190505050602981905550600160246000828254019250508190555042601f81905550612313565b60006002602554816120fe57fe5b0614801561210e57506001602454145b1561231257602260006002811061212157fe5b0160009054906101000a900473ffffffffffffffffffffffffffffffffffffffff1673ffffffffffffffffffffffffffffffffffffffff163373ffffffffffffffffffffffffffffffffffffffff16146121e3576040517f08c379a00000000000000000000000000000000000000000000000000000000081526004018080602001828103825260178152602001807f497420697320506c61796572312773205475726e20212100000000000000000081525060200191505060405180910390fd5b600282826040516020018083815260200182805190602001908083835b602083106122235780518252602082019150602081019050602083039250612200565b6001836020036101000a038019825116818451168082178552505050505050905001925050506040516020818303038152906040526040518082805190602001908083835b6020831061228b5780518252602082019150602081019050602083039250612268565b6001836020036101000a038019825116818451168082178552505050505050905001915050602060405180830381855afa1580156122cd573d6000803e3d6000fd5b5050506040513d60208110156122e257600080fd5b8101908080519060200190929190505050602881905550600160246000828254019250508190555042601f819055505b5b5b5b5050565b602c816003811061232657fe5b016000915090505481565b60006020528060005260406000206000915090505481565b6022816002811061235657fe5b016000915054906101000a900473ffffffffffffffffffffffffffffffffffffffff1681565b602260006002811061238a57fe5b0160009054906101000a900473ffffffffffffffffffffffffffffffffffffffff1673ffffffffffffffffffffffffffffffffffffffff163373ffffffffffffffffffffffffffffffffffffffff161461244c576040517f08c379a000000000000000000000000000000000000000000000000000000000815260040180806020018281038252601d8152602001807f4f6e6c7920706c61796572312063616e20696e766f6b6520746869732e00000081525060200191505060405180910390fd5b6001601c54146124c4576040517f08c379a000000000000000000000000000000000000000000000000000000000815260040180806020018281038252601c8152602001807f43616e6e6f7420696e766f6b6520746869732066756e6374696f6e2e0000000081525060200191505060405180910390fd5b602060009054906101000a900473ffffffffffffffffffffffffffffffffffffffff1673ffffffffffffffffffffffffffffffffffffffff163373ffffffffffffffffffffffffffffffffffffffff161415612588576040517f08c379a000000000000000000000000000000000000000000000000000000000815260040180806020018281038252601f8152602001807f41646d696e2043616e6e6f742075736520746869732066756e6374696f6e2e0081525060200191505060405180910390fd5b42601e601d60006002811061259957fe5b0154011061260f576040517f08c379a000000000000000000000000000000000000000000000000000000000815260040180806020018281038252601f8152602001807f506c65617365207761697420666f7220736f6d65206d6f72652074696d652e0081525060200191505060405180910390fd5b602260006002811061261d57fe5b0160009054906101000a900473ffffffffffffffffffffffffffffffffffffffff1673ffffffffffffffffffffffffffffffffffffffff166108fc6001549081150290604051600060405180830381858888f19350505050158015612686573d6000803e3d6000fd5b506000601d60006002811061269757fe5b01819055506000601d6001600281106126ac57fe5b01819055506000601c819055506126c1610e34565b56fe4d6f7665732073746f7265642c206e6f7720626f74682052657665616c2043686f6963657320616e642073656c6563742067657457696e6e657254686973206164647265737320697320616c72656164792072656769737465726564536f6d656f6e65206973207374696c6c2079657420746f2072657665616c2074686569722063686f69636573506c65617365207761697420666f72206f7468657220706c6179657220746f20636f6d6d6974a165627a7a72305820d5e2d85049044cc22ee8e3b70ccf3906f49f6bba68d4451291b15c266c9c84210029",
  "source": "pragma solidity >=0.5.2 <0.6.0;\n\ncontract SPSLS\n{\n    mapping(address=> uint256) public balance;\n    uint fee;\n    int[5][5] matrix;\n    uint number_of_games;\n    uint public current_number_of_players;\n    uint[2] reg_time;\n    uint lastchanceat;\n    address payable admin;\n    address adr;\n    address payable [2] public players;\n    uint public current_turn;\n    uint public current_game;\n    uint public choice1;\n    uint public choice2;\n    bytes32 hash1;\n    bytes32 hash2;\n    uint winner;\n    uint win;\n    uint[3] public scoreboard;\n    uint[5][5] public game_matrix;\n    \n    constructor() public\n    {\n        admin=msg.sender;\n        balance[admin] = 1000;\n        fee=5 ether;\n        current_number_of_players=0;\n        number_of_games=3;\n        players[0]=0x0000000000000000000000000000000000000000;\n        players[1]=0x0000000000000000000000000000000000000000;\n        reg_time[0]=0;\n        reg_time[1]=0;\n        current_turn=0;\n        current_game=1;\n        game_matrix=[[0, 2, 1, 1, 2],[1, 0, 2, 2, 1],[2, 1, 0, 1, 2],[2, 1, 2, 0, 1],[1, 2, 1, 2, 0]];\n        scoreboard=[0,0,0];\n        choice1=10;\n        choice2=10;\n        winner=3;\n    }\n    \n    function reset_to_defaults() public\n    {\n        number_of_games=1;\n        players[0]=0x0000000000000000000000000000000000000000;\n        players[1]=0x0000000000000000000000000000000000000000;\n        reg_time[0]=0;\n        reg_time[1]=0;\n        current_turn=0;\n        current_game=1;\n        choice1=10;\n        choice2=10;\n        winner=3;\n    }\n    \n    function register_as_player() public payable\n    {\n        require(msg.sender!=admin,\"Admin Cannot Register\");\n        require(current_number_of_players<2,\"Room Already Full!!\");\n        require(msg.value==fee,\"Send Exact Fee (Only Ether)\");\n        if(current_number_of_players==1)\n            require(msg.sender!=players[0],\"This address is already registered\");\n        \n        players[current_number_of_players]=msg.sender;\n        reg_time[current_number_of_players]=now;\n        current_number_of_players++;\n        if(current_number_of_players==2)\n        {\n            current_turn=0;\n            current_game=1;\n            lastchanceat=now;\n        }\n    }\n    \n    function p2_not_present_refund() public\n    {\n        require(msg.sender==players[0],\"Only player1 can invoke this.\");\n        require(current_number_of_players==1,\"Cannot invoke this function.\");\n        require(msg.sender!=admin,\"Admin Cannot use this function.\");\n        require(reg_time[0] + 30 seconds < now,\"Please wait for some more time.\");\n        players[0].transfer(fee);\n        reg_time[0]=0;\n        reg_time[1]=0;\n        current_number_of_players=0;\n        reset_to_defaults();\n    }\n    \n    function inactivity_claim() public\n    {\n        require(current_number_of_players==2, \"Room not full, Please wait\");\n        \n        if(msg.sender==players[0])\n        {\n            if((current_game%2==1 && current_turn==0) || (current_game%2==0 && current_turn==1))\n            {\n                require(lastchanceat+30 seconds < now,\"Too Early to Claim, please wait\");\n                players[0].transfer(2*fee);\n                reset_to_defaults();\n                reg_time[0]=0;\n                reg_time[1]=0;\n            current_number_of_players=0;\n            }\n        }\n        else if(msg.sender==players[1])\n        {\n            if((current_game%2==1 && current_turn==1) || (current_game%2==0 && current_turn==0))\n            {\n                require(lastchanceat+30 seconds < now,\"Too Early to Claim, please wait\");\n                players[1].transfer(2*fee);\n                reset_to_defaults();\n                reg_time[0]=0;\n                reg_time[1]=0;\n            current_number_of_players=0;\n            }\n        }\n    }\n    \n    function play(uint ch,string memory key) public\n    {\n        require(current_turn==0 || current_turn==1,\"Moves stored, now both Reveal Choices and select getWinner\");\n        require(current_number_of_players==2,\"Awaiting Other Player !\");\n        require(msg.sender==players[0] || msg.sender==players[1],\"You are not registered to play.\");\n        \n        if(current_game%2==1 && current_turn==0)\n        {\n            require(msg.sender==players[0],\"It is Player1's Turn !!\");\n            hash1=sha256(abi.encodePacked(ch,key));\n            current_turn+=1;\n            lastchanceat=now;\n        }\n        else if(current_game%2==1 && current_turn==1)\n        {\n            require(msg.sender==players[1],\"It is Player2's Turn !!\");\n            hash2=sha256(abi.encodePacked(ch,key));\n            current_turn+=1;\n            lastchanceat=now;\n        }\n        else if(current_game%2==0 && current_turn==0)\n        {\n            require(msg.sender==players[1],\"It is Player2's Turn !!\");\n            hash2=sha256(abi.encodePacked(ch,key));\n            current_turn+=1;\n            lastchanceat=now;\n        }\n        else if(current_game%2==0 && current_turn==1)\n        {\n            require(msg.sender==players[0],\"It is Player1's Turn !!\");\n            hash1=sha256(abi.encodePacked(ch,key));\n            current_turn+=1;\n            lastchanceat=now;\n        }\n\n    }\n    \n    function reveal(uint ch,string memory key) public\n    {\n        bytes32 testhash;\n        require(msg.sender==players[0] || msg.sender==players[1],\"You are not registered to play.\");\n        require(current_turn==2,\"Please wait for other player to commit\");\n        if(msg.sender==players[0])\n        {\n            testhash=sha256(abi.encodePacked(ch,key));\n            // testhash=sha256(ch,key);\n            if(testhash!=hash1)\n            {\n                players[1].transfer(2*fee);\n                reset_to_defaults();\n            }\n            choice1=ch;\n        }\n        if(msg.sender==players[1])\n        {\n            testhash=sha256(abi.encodePacked(ch,key));\n            if(testhash!=hash2)\n            {\n                players[0].transfer(2*fee);\n                reset_to_defaults();\n            }\n            choice2=ch;\n        }\n    }\n    \n    function getWinner() public returns(uint w)\n    {\n        bool val=(msg.sender==players[0] || msg.sender==players[1]);\n        require(val==true,\"Only registered players allowed\");\n        require(choice1!=10 && choice2!=10,\"Someone is still yet to reveal their choices\");\n        winner=game_matrix[choice1-1][choice2-1];\n        win = winner;\n        scoreboard[winner]++;\n        \n        if(current_game==number_of_games)\n        {\n            if(scoreboard[1]==scoreboard[2])\n            {\n                players[0].transfer(fee);\n                players[1].transfer(fee);\n            }\n            else if(scoreboard[1]>scoreboard[2])\n            {\n                players[0].transfer(2*fee);\n            }\n            else\n            {\n                players[1].transfer(2*fee);\n            }\n            reg_time[0]=0;\n            reg_time[1]=0;\n            current_number_of_players=0;\n            reset_to_defaults();\n        }\n        current_game++;\n        current_turn=0;\n        choice1=10;\n        choice2=10;\n        winner=3;\n        return win;\n    }\n    \n}",
  "sourcePath": "/home/ksvsc/IIITH/Monsoon19/Block Chain/Assignment1/My_Contract/SPSLS/contracts/SPSLS.sol",
  "compiler": {
    "name": "solc",
    "version": "0.5.8+commit.23d335f2.Emscripten.clang"
  },
  "schemaVersion": "3.0.15",
  "updatedAt": "2019-09-16T20:40:37.236Z",
  "devdoc": {
    "methods": {}
  },
  "userdoc": {
    "methods": {}
  }
}