{
  "contractName": "SPSLS",
  "abi": [
    {
      "constant": true,
      "inputs": [],
      "name": "current_game",
      "outputs": [
        {
          "name": "",
          "type": "uint256"
        }
      ],
      "payable": false,
      "stateMutability": "view",
      "type": "function"
    },
    {
      "constant": true,
      "inputs": [],
      "name": "win",
      "outputs": [
        {
          "name": "",
          "type": "uint256"
        }
      ],
      "payable": false,
      "stateMutability": "view",
      "type": "function"
    },
    {
      "constant": true,
      "inputs": [],
      "name": "choice1",
      "outputs": [
        {
          "name": "",
          "type": "uint256"
        }
      ],
      "payable": false,
      "stateMutability": "view",
      "type": "function"
    },
    {
      "constant": true,
      "inputs": [],
      "name": "current_turn",
      "outputs": [
        {
          "name": "",
          "type": "uint256"
        }
      ],
      "payable": false,
      "stateMutability": "view",
      "type": "function"
    },
    {
      "constant": true,
      "inputs": [],
      "name": "choice2",
      "outputs": [
        {
          "name": "",
          "type": "uint256"
        }
      ],
      "payable": false,
      "stateMutability": "view",
      "type": "function"
    },
    {
      "constant": true,
      "inputs": [],
      "name": "current_number_of_players",
      "outputs": [
        {
          "name": "",
          "type": "uint256"
        }
      ],
      "payable": false,
      "stateMutability": "view",
      "type": "function"
    },
    {
      "constant": true,
      "inputs": [
        {
          "name": "",
          "type": "uint256"
        },
        {
          "name": "",
          "type": "uint256"
        }
      ],
      "name": "game_matrix",
      "outputs": [
        {
          "name": "",
          "type": "uint256"
        }
      ],
      "payable": false,
      "stateMutability": "view",
      "type": "function"
    },
    {
      "constant": true,
      "inputs": [
        {
          "name": "",
          "type": "uint256"
        }
      ],
      "name": "scoreboard",
      "outputs": [
        {
          "name": "",
          "type": "uint256"
        }
      ],
      "payable": false,
      "stateMutability": "view",
      "type": "function"
    },
    {
      "constant": true,
      "inputs": [
        {
          "name": "",
          "type": "address"
        }
      ],
      "name": "balance",
      "outputs": [
        {
          "name": "",
          "type": "uint256"
        }
      ],
      "payable": false,
      "stateMutability": "view",
      "type": "function"
    },
    {
      "constant": true,
      "inputs": [
        {
          "name": "",
          "type": "uint256"
        }
      ],
      "name": "players",
      "outputs": [
        {
          "name": "",
          "type": "address"
        }
      ],
      "payable": false,
      "stateMutability": "view",
      "type": "function"
    },
    {
      "inputs": [],
      "payable": false,
      "stateMutability": "nonpayable",
      "type": "constructor"
    },
    {
      "constant": false,
      "inputs": [],
      "name": "reset_to_defaults",
      "outputs": [],
      "payable": false,
      "stateMutability": "nonpayable",
      "type": "function"
    },
    {
      "constant": false,
      "inputs": [],
      "name": "register_as_player",
      "outputs": [],
      "payable": true,
      "stateMutability": "payable",
      "type": "function"
    },
    {
      "constant": false,
      "inputs": [],
      "name": "p2_not_present_refund",
      "outputs": [],
      "payable": false,
      "stateMutability": "nonpayable",
      "type": "function"
    },
    {
      "constant": false,
      "inputs": [],
      "name": "inactivity_claim",
      "outputs": [],
      "payable": false,
      "stateMutability": "nonpayable",
      "type": "function"
    },
    {
      "constant": false,
      "inputs": [
        {
          "name": "ch",
          "type": "uint256"
        },
        {
          "name": "key",
          "type": "string"
        }
      ],
      "name": "play",
      "outputs": [],
      "payable": false,
      "stateMutability": "nonpayable",
      "type": "function"
    },
    {
      "constant": false,
      "inputs": [
        {
          "name": "ch",
          "type": "uint256"
        },
        {
          "name": "key",
          "type": "string"
        }
      ],
      "name": "reveal",
      "outputs": [],
      "payable": false,
      "stateMutability": "nonpayable",
      "type": "function"
    },
    {
      "constant": false,
      "inputs": [],
      "name": "getWinner",
      "outputs": [
        {
          "name": "w",
          "type": "uint256"
        }
      ],
      "payable": false,
      "stateMutability": "nonpayable",
      "type": "function"
    }
  ],
  "bytecode": "0x60806040523480156200001157600080fd5b5033602060006101000a81548173ffffffffffffffffffffffffffffffffffffffff021916908373ffffffffffffffffffffffffffffffffffffffff1602179055506103e8600080602060009054906101000a900473ffffffffffffffffffffffffffffffffffffffff1673ffffffffffffffffffffffffffffffffffffffff1673ffffffffffffffffffffffffffffffffffffffff16815260200190815260200160002081905550674563918244f400006001819055506000601c81905550600a601b8190555060006022600060028110620000ea57fe5b0160006101000a81548173ffffffffffffffffffffffffffffffffffffffff021916908373ffffffffffffffffffffffffffffffffffffffff160217905550600060226001600281106200013a57fe5b0160006101000a81548173ffffffffffffffffffffffffffffffffffffffff021916908373ffffffffffffffffffffffffffffffffffffffff1602179055506000601d6000600281106200018a57fe5b01819055506000601d600160028110620001a057fe5b0181905550600060248190555060016025819055506040518060a001604052806040518060a00160405280600060ff168152602001600260ff168152602001600160ff168152602001600160ff168152602001600260ff1681525081526020016040518060a00160405280600160ff168152602001600060ff168152602001600260ff168152602001600260ff168152602001600160ff1681525081526020016040518060a00160405280600260ff168152602001600160ff168152602001600060ff168152602001600160ff168152602001600260ff1681525081526020016040518060a00160405280600260ff168152602001600160ff168152602001600260ff168152602001600060ff168152602001600160ff1681525081526020016040518060a00160405280600160ff168152602001600260ff168152602001600160ff168152602001600260ff168152602001600060ff16815250815250602f9060056200031092919062000369565b506040518060600160405280600060ff168152602001600060ff168152602001600060ff16815250602c9060036200034a929190620003c0565b50600a602681905550600a6027819055506003602a81905550620004d0565b82600580028101928215620003ad579160200282015b82811115620003ac578251829060056200039b9291906200040a565b50916020019190600501906200037f565b5b509050620003bc919062000454565b5090565b8260038101928215620003f7579160200282015b82811115620003f6578251829060ff16905591602001919060010190620003d4565b5b50905062000406919062000485565b5090565b826005810192821562000441579160200282015b8281111562000440578251829060ff169055916020019190600101906200041e565b5b50905062000450919062000485565b5090565b6200048291905b808211156200047e5760008181620004749190620004ad565b506005016200045b565b5090565b90565b620004aa91905b80821115620004a65760008160009055506001016200048c565b5090565b90565b506000815560010160008155600101600081556001016000815560010160009055565b6127d980620004e06000396000f3fe6080604052600436106100fe5760003560e01c80638b20a00c11610095578063c9cb6eeb11610064578063c9cb6eeb14610393578063d75ffdcf14610465578063e3d670d7146104b4578063f71d96cb14610519578063fa78300014610594576100fe565b80638b20a00c146102cd5780638e2f7135146102e45780638e7ea5b21461030f578063a45c7c881461033a576100fe565b8063473ca96c116100d1578063473ca96c1461022157806349e811c51461024c57806350ae9daf1461027757806387cfa5bf146102a2576100fe565b8063185f0516146101035780631a6105171461012e5780632fa4548b1461013857806339289d191461020a575b600080fd5b34801561010f57600080fd5b506101186105ab565b6040518082815260200191505060405180910390f35b6101366105b1565b005b34801561014457600080fd5b506102086004803603604081101561015b57600080fd5b81019080803590602001909291908035906020019064010000000081111561018257600080fd5b82018360208201111561019457600080fd5b803590602001918460018302840111640100000000831117156101b657600080fd5b91908080601f016020809104026020016040519081016040528093929190818152602001838380828437600081840152601f19601f8201169050808301925050505050505091929192905050506108bf565b005b34801561021657600080fd5b5061021f610e6a565b005b34801561022d57600080fd5b50610236610f64565b6040518082815260200191505060405180910390f35b34801561025857600080fd5b50610261610f6a565b6040518082815260200191505060405180910390f35b34801561028357600080fd5b5061028c610f70565b6040518082815260200191505060405180910390f35b3480156102ae57600080fd5b506102b7610f76565b6040518082815260200191505060405180910390f35b3480156102d957600080fd5b506102e2610f7c565b005b3480156102f057600080fd5b506102f96113b3565b6040518082815260200191505060405180910390f35b34801561031b57600080fd5b506103246113b9565b6040518082815260200191505060405180910390f35b34801561034657600080fd5b5061037d6004803603604081101561035d57600080fd5b81019080803590602001909291908035906020019092919050505061187d565b6040518082815260200191505060405180910390f35b34801561039f57600080fd5b50610463600480360360408110156103b657600080fd5b8101908080359060200190929190803590602001906401000000008111156103dd57600080fd5b8201836020820111156103ef57600080fd5b8035906020019184600183028401116401000000008311171561041157600080fd5b91908080601f016020809104026020016040519081016040528093929190818152602001838380828437600081840152601f19601f8201169050808301925050505050505091929192905050506118a5565b005b34801561047157600080fd5b5061049e6004803603602081101561048857600080fd5b8101908080359060200190929190505050612355565b6040518082815260200191505060405180910390f35b3480156104c057600080fd5b50610503600480360360208110156104d757600080fd5b81019080803573ffffffffffffffffffffffffffffffffffffffff16906020019092919050505061236d565b6040518082815260200191505060405180910390f35b34801561052557600080fd5b506105526004803603602081101561053c57600080fd5b8101908080359060200190929190505050612385565b604051808273ffffffffffffffffffffffffffffffffffffffff1673ffffffffffffffffffffffffffffffffffffffff16815260200191505060405180910390f35b3480156105a057600080fd5b506105a96123b8565b005b60255481565b602060009054906101000a900473ffffffffffffffffffffffffffffffffffffffff1673ffffffffffffffffffffffffffffffffffffffff163373ffffffffffffffffffffffffffffffffffffffff161415610675576040517f08c379a00000000000000000000000000000000000000000000000000000000081526004018080602001828103825260158152602001807f41646d696e2043616e6e6f74205265676973746572000000000000000000000081525060200191505060405180910390fd5b6002601c54106106ed576040517f08c379a00000000000000000000000000000000000000000000000000000000081526004018080602001828103825260138152602001807f526f6f6d20416c72656164792046756c6c21210000000000000000000000000081525060200191505060405180910390fd5b6001543414610764576040517f08c379a000000000000000000000000000000000000000000000000000000000815260040180806020018281038252601b8152602001807f53656e642045786163742046656520284f6e6c7920457468657229000000000081525060200191505060405180910390fd5b6001601c54141561082457602260006002811061077d57fe5b0160009054906101000a900473ffffffffffffffffffffffffffffffffffffffff1673ffffffffffffffffffffffffffffffffffffffff163373ffffffffffffffffffffffffffffffffffffffff161415610823576040517f08c379a000000000000000000000000000000000000000000000000000000000815260040180806020018281038252602281526020018061273a6022913960400191505060405180910390fd5b5b336022601c546002811061083457fe5b0160006101000a81548173ffffffffffffffffffffffffffffffffffffffff021916908373ffffffffffffffffffffffffffffffffffffffff16021790555042601d601c546002811061088357fe5b0181905550601c600081548092919060010191905055506002601c5414156108bd576000602481905550600160258190555042601f819055505b565b600060226000600281106108cf57fe5b0160009054906101000a900473ffffffffffffffffffffffffffffffffffffffff1673ffffffffffffffffffffffffffffffffffffffff163373ffffffffffffffffffffffffffffffffffffffff1614806109845750602260016002811061093357fe5b0160009054906101000a900473ffffffffffffffffffffffffffffffffffffffff1673ffffffffffffffffffffffffffffffffffffffff163373ffffffffffffffffffffffffffffffffffffffff16145b6109f6576040517f08c379a000000000000000000000000000000000000000000000000000000000815260040180806020018281038252601f8152602001807f596f7520617265206e6f74207265676973746572656420746f20706c61792e0081525060200191505060405180910390fd5b600260245414610a51576040517f08c379a00000000000000000000000000000000000000000000000000000000081526004018080602001828103825260268152602001806127886026913960400191505060405180910390fd5b6022600060028110610a5f57fe5b0160009054906101000a900473ffffffffffffffffffffffffffffffffffffffff1673ffffffffffffffffffffffffffffffffffffffff163373ffffffffffffffffffffffffffffffffffffffff161415610c5b57600283836040516020018083815260200182805190602001908083835b60208310610af45780518252602082019150602081019050602083039250610ad1565b6001836020036101000a038019825116818451168082178552505050505050905001925050506040516020818303038152906040526040518082805190602001908083835b60208310610b5c5780518252602082019150602081019050602083039250610b39565b6001836020036101000a038019825116818451168082178552505050505050905001915050602060405180830381855afa158015610b9e573d6000803e3d6000fd5b5050506040513d6020811015610bb357600080fd5b810190808051906020019092919050505090506028548114610c53576022600160028110610bdd57fe5b0160009054906101000a900473ffffffffffffffffffffffffffffffffffffffff1673ffffffffffffffffffffffffffffffffffffffff166108fc6001546002029081150290604051600060405180830381858888f19350505050158015610c49573d6000803e3d6000fd5b50610c52610e6a565b5b826026819055505b6022600160028110610c6957fe5b0160009054906101000a900473ffffffffffffffffffffffffffffffffffffffff1673ffffffffffffffffffffffffffffffffffffffff163373ffffffffffffffffffffffffffffffffffffffff161415610e6557600283836040516020018083815260200182805190602001908083835b60208310610cfe5780518252602082019150602081019050602083039250610cdb565b6001836020036101000a038019825116818451168082178552505050505050905001925050506040516020818303038152906040526040518082805190602001908083835b60208310610d665780518252602082019150602081019050602083039250610d43565b6001836020036101000a038019825116818451168082178552505050505050905001915050602060405180830381855afa158015610da8573d6000803e3d6000fd5b5050506040513d6020811015610dbd57600080fd5b810190808051906020019092919050505090506029548114610e5d576022600060028110610de757fe5b0160009054906101000a900473ffffffffffffffffffffffffffffffffffffffff1673ffffffffffffffffffffffffffffffffffffffff166108fc6001546002029081150290604051600060405180830381858888f19350505050158015610e53573d6000803e3d6000fd5b50610e5c610e6a565b5b826027819055505b505050565b600a601b8190555060006022600060028110610e8257fe5b0160006101000a81548173ffffffffffffffffffffffffffffffffffffffff021916908373ffffffffffffffffffffffffffffffffffffffff16021790555060006022600160028110610ed157fe5b0160006101000a81548173ffffffffffffffffffffffffffffffffffffffff021916908373ffffffffffffffffffffffffffffffffffffffff1602179055506000601d600060028110610f2057fe5b01819055506000601d600160028110610f3557fe5b018190555060006024819055506001602581905550600a602681905550600a6027819055506003602a81905550565b602b5481565b60265481565b60245481565b60275481565b6002601c5414610ff4576040517f08c379a000000000000000000000000000000000000000000000000000000000815260040180806020018281038252601a8152602001807f526f6f6d206e6f742066756c6c2c20506c65617365207761697400000000000081525060200191505060405180910390fd5b602260016002811061100257fe5b0160009054906101000a900473ffffffffffffffffffffffffffffffffffffffff1673ffffffffffffffffffffffffffffffffffffffff163373ffffffffffffffffffffffffffffffffffffffff1614156111d457600160026025548161106557fe5b0614801561107557506000602454145b8061109a5750600060026025548161108957fe5b0614801561109957506001602454145b5b156111cf5742600a601f540110611119576040517f08c379a000000000000000000000000000000000000000000000000000000000815260040180806020018281038252601f8152602001807f546f6f204561726c7920746f20436c61696d2c20706c6561736520776169740081525060200191505060405180910390fd5b602260016002811061112757fe5b0160009054906101000a900473ffffffffffffffffffffffffffffffffffffffff1673ffffffffffffffffffffffffffffffffffffffff166108fc6001546002029081150290604051600060405180830381858888f19350505050158015611193573d6000803e3d6000fd5b5061119c610e6a565b6000601d6000600281106111ac57fe5b01819055506000601d6001600281106111c157fe5b01819055506000601c819055505b6113b1565b60226000600281106111e257fe5b0160009054906101000a900473ffffffffffffffffffffffffffffffffffffffff1673ffffffffffffffffffffffffffffffffffffffff163373ffffffffffffffffffffffffffffffffffffffff1614156113b057600160026025548161124557fe5b0614801561125557506001602454145b8061127a5750600060026025548161126957fe5b0614801561127957506000602454145b5b156113af5742600a601f5401106112f9576040517f08c379a000000000000000000000000000000000000000000000000000000000815260040180806020018281038252601f8152602001807f546f6f204561726c7920746f20436c61696d2c20706c6561736520776169740081525060200191505060405180910390fd5b602260006002811061130757fe5b0160009054906101000a900473ffffffffffffffffffffffffffffffffffffffff1673ffffffffffffffffffffffffffffffffffffffff166108fc6001546002029081150290604051600060405180830381858888f19350505050158015611373573d6000803e3d6000fd5b5061137c610e6a565b6000601d60006002811061138c57fe5b01819055506000601d6001600281106113a157fe5b01819055506000601c819055505b5b5b565b601c5481565b60008060226000600281106113ca57fe5b0160009054906101000a900473ffffffffffffffffffffffffffffffffffffffff1673ffffffffffffffffffffffffffffffffffffffff163373ffffffffffffffffffffffffffffffffffffffff16148061147f5750602260016002811061142e57fe5b0160009054906101000a900473ffffffffffffffffffffffffffffffffffffffff1673ffffffffffffffffffffffffffffffffffffffff163373ffffffffffffffffffffffffffffffffffffffff16145b905060011515811515146114fb576040517f08c379a000000000000000000000000000000000000000000000000000000000815260040180806020018281038252601f8152602001807f4f6e6c79207265676973746572656420706c617965727320616c6c6f7765640081525060200191505060405180910390fd5b600a602654141580156115115750600a60275414155b611566576040517f08c379a000000000000000000000000000000000000000000000000000000000815260040180806020018281038252602c81526020018061275c602c913960400191505060405180910390fd5b602f6001602654036005811061157857fe5b600502016001602754036005811061158c57fe5b0154602a81905550602a54602b81905550602c602a54600381106115ac57fe5b0160008154809291906001019190505550601b54602554141561184257602c6002600381106115d757fe5b0154602c6001600381106115e757fe5b015414156116e45760226000600281106115fd57fe5b0160009054906101000a900473ffffffffffffffffffffffffffffffffffffffff1673ffffffffffffffffffffffffffffffffffffffff166108fc6001549081150290604051600060405180830381858888f19350505050158015611666573d6000803e3d6000fd5b50602260016002811061167557fe5b0160009054906101000a900473ffffffffffffffffffffffffffffffffffffffff1673ffffffffffffffffffffffffffffffffffffffff166108fc6001549081150290604051600060405180830381858888f193505050501580156116de573d6000803e3d6000fd5b50611807565b602c6002600381106116f257fe5b0154602c60016003811061170257fe5b0154111561178a57602260006002811061171857fe5b0160009054906101000a900473ffffffffffffffffffffffffffffffffffffffff1673ffffffffffffffffffffffffffffffffffffffff166108fc6001546002029081150290604051600060405180830381858888f19350505050158015611784573d6000803e3d6000fd5b50611806565b602260016002811061179857fe5b0160009054906101000a900473ffffffffffffffffffffffffffffffffffffffff1673ffffffffffffffffffffffffffffffffffffffff166108fc6001546002029081150290604051600060405180830381858888f19350505050158015611804573d6000803e3d6000fd5b505b5b6000601d60006002811061181757fe5b01819055506000601d60016002811061182c57fe5b01819055506000601c81905550611841610e6a565b5b6025600081548092919060010191905055506000602481905550600a602681905550600a6027819055506003602a81905550602b5491505090565b602f826005811061188a57fe5b60050201816005811061189957fe5b01600091509150505481565b600060245414806118b857506001602454145b61190d576040517f08c379a000000000000000000000000000000000000000000000000000000000815260040180806020018281038252603a815260200180612700603a913960400191505060405180910390fd5b6002601c5414611985576040517f08c379a00000000000000000000000000000000000000000000000000000000081526004018080602001828103825260178152602001807f4177616974696e67204f7468657220506c61796572202100000000000000000081525060200191505060405180910390fd5b602260006002811061199357fe5b0160009054906101000a900473ffffffffffffffffffffffffffffffffffffffff1673ffffffffffffffffffffffffffffffffffffffff163373ffffffffffffffffffffffffffffffffffffffff161480611a48575060226001600281106119f757fe5b0160009054906101000a900473ffffffffffffffffffffffffffffffffffffffff1673ffffffffffffffffffffffffffffffffffffffff163373ffffffffffffffffffffffffffffffffffffffff16145b611aba576040517f08c379a000000000000000000000000000000000000000000000000000000000815260040180806020018281038252601f8152602001807f596f7520617265206e6f74207265676973746572656420746f20706c61792e0081525060200191505060405180910390fd5b6001600260255481611ac857fe5b06148015611ad857506000602454145b15611ce0576022600060028110611aeb57fe5b0160009054906101000a900473ffffffffffffffffffffffffffffffffffffffff1673ffffffffffffffffffffffffffffffffffffffff163373ffffffffffffffffffffffffffffffffffffffff1614611bad576040517f08c379a00000000000000000000000000000000000000000000000000000000081526004018080602001828103825260178152602001807f497420697320506c61796572312773205475726e20212100000000000000000081525060200191505060405180910390fd5b600282826040516020018083815260200182805190602001908083835b60208310611bed5780518252602082019150602081019050602083039250611bca565b6001836020036101000a038019825116818451168082178552505050505050905001925050506040516020818303038152906040526040518082805190602001908083835b60208310611c555780518252602082019150602081019050602083039250611c32565b6001836020036101000a038019825116818451168082178552505050505050905001915050602060405180830381855afa158015611c97573d6000803e3d6000fd5b5050506040513d6020811015611cac57600080fd5b8101908080519060200190929190505050602881905550600160246000828254019250508190555042601f81905550612351565b6001600260255481611cee57fe5b06148015611cfe57506001602454145b15611f06576022600160028110611d1157fe5b0160009054906101000a900473ffffffffffffffffffffffffffffffffffffffff1673ffffffffffffffffffffffffffffffffffffffff163373ffffffffffffffffffffffffffffffffffffffff1614611dd3576040517f08c379a00000000000000000000000000000000000000000000000000000000081526004018080602001828103825260178152602001807f497420697320506c61796572322773205475726e20212100000000000000000081525060200191505060405180910390fd5b600282826040516020018083815260200182805190602001908083835b60208310611e135780518252602082019150602081019050602083039250611df0565b6001836020036101000a038019825116818451168082178552505050505050905001925050506040516020818303038152906040526040518082805190602001908083835b60208310611e7b5780518252602082019150602081019050602083039250611e58565b6001836020036101000a038019825116818451168082178552505050505050905001915050602060405180830381855afa158015611ebd573d6000803e3d6000fd5b5050506040513d6020811015611ed257600080fd5b8101908080519060200190929190505050602981905550600160246000828254019250508190555042601f81905550612350565b6000600260255481611f1457fe5b06148015611f2457506000602454145b1561212c576022600160028110611f3757fe5b0160009054906101000a900473ffffffffffffffffffffffffffffffffffffffff1673ffffffffffffffffffffffffffffffffffffffff163373ffffffffffffffffffffffffffffffffffffffff1614611ff9576040517f08c379a00000000000000000000000000000000000000000000000000000000081526004018080602001828103825260178152602001807f497420697320506c61796572322773205475726e20212100000000000000000081525060200191505060405180910390fd5b600282826040516020018083815260200182805190602001908083835b602083106120395780518252602082019150602081019050602083039250612016565b6001836020036101000a038019825116818451168082178552505050505050905001925050506040516020818303038152906040526040518082805190602001908083835b602083106120a1578051825260208201915060208101905060208303925061207e565b6001836020036101000a038019825116818451168082178552505050505050905001915050602060405180830381855afa1580156120e3573d6000803e3d6000fd5b5050506040513d60208110156120f857600080fd5b8101908080519060200190929190505050602981905550600160246000828254019250508190555042601f8190555061234f565b600060026025548161213a57fe5b0614801561214a57506001602454145b1561234e57602260006002811061215d57fe5b0160009054906101000a900473ffffffffffffffffffffffffffffffffffffffff1673ffffffffffffffffffffffffffffffffffffffff163373ffffffffffffffffffffffffffffffffffffffff161461221f576040517f08c379a00000000000000000000000000000000000000000000000000000000081526004018080602001828103825260178152602001807f497420697320506c61796572312773205475726e20212100000000000000000081525060200191505060405180910390fd5b600282826040516020018083815260200182805190602001908083835b6020831061225f578051825260208201915060208101905060208303925061223c565b6001836020036101000a038019825116818451168082178552505050505050905001925050506040516020818303038152906040526040518082805190602001908083835b602083106122c757805182526020820191506020810190506020830392506122a4565b6001836020036101000a038019825116818451168082178552505050505050905001915050602060405180830381855afa158015612309573d6000803e3d6000fd5b5050506040513d602081101561231e57600080fd5b8101908080519060200190929190505050602881905550600160246000828254019250508190555042601f819055505b5b5b5b5050565b602c816003811061236257fe5b016000915090505481565b60006020528060005260406000206000915090505481565b6022816002811061239257fe5b016000915054906101000a900473ffffffffffffffffffffffffffffffffffffffff1681565b602060009054906101000a900473ffffffffffffffffffffffffffffffffffffffff1673ffffffffffffffffffffffffffffffffffffffff163373ffffffffffffffffffffffffffffffffffffffff16141561247c576040517f08c379a000000000000000000000000000000000000000000000000000000000815260040180806020018281038252601f8152602001807f41646d696e2043616e6e6f742075736520746869732066756e6374696f6e2e0081525060200191505060405180910390fd5b602260006002811061248a57fe5b0160009054906101000a900473ffffffffffffffffffffffffffffffffffffffff1673ffffffffffffffffffffffffffffffffffffffff163373ffffffffffffffffffffffffffffffffffffffff161461254c576040517f08c379a000000000000000000000000000000000000000000000000000000000815260040180806020018281038252601d8152602001807f4f6e6c7920706c61796572312063616e20696e766f6b6520746869732e00000081525060200191505060405180910390fd5b6001601c54146125c4576040517f08c379a000000000000000000000000000000000000000000000000000000000815260040180806020018281038252601c8152602001807f43616e6e6f7420696e766f6b6520746869732066756e6374696f6e2e0000000081525060200191505060405180910390fd5b42600a601d6000600281106125d557fe5b0154011061264b576040517f08c379a000000000000000000000000000000000000000000000000000000000815260040180806020018281038252601f8152602001807f506c65617365207761697420666f7220736f6d65206d6f72652074696d652e0081525060200191505060405180910390fd5b602260006002811061265957fe5b0160009054906101000a900473ffffffffffffffffffffffffffffffffffffffff1673ffffffffffffffffffffffffffffffffffffffff166108fc6001549081150290604051600060405180830381858888f193505050501580156126c2573d6000803e3d6000fd5b506000601d6000600281106126d357fe5b01819055506000601d6001600281106126e857fe5b01819055506000601c819055506126fd610e6a565b56fe4d6f7665732073746f7265642c206e6f7720626f74682052657665616c2043686f6963657320616e642073656c6563742067657457696e6e657254686973206164647265737320697320616c72656164792072656769737465726564536f6d656f6e65206973207374696c6c2079657420746f2072657665616c2074686569722063686f69636573506c65617365207761697420666f72206f7468657220706c6179657220746f20636f6d6d6974a165627a7a72305820bb3462a974a34fe1d4b2f059c8369cf7f683341e42b6293537806b899edd49840029",
  "source": "pragma solidity >=0.5.2 <0.6.0;\n\ncontract SPSLS\n{\n    mapping(address=> uint256) public balance;\n    uint fee;\n    int[5][5] matrix;\n    uint number_of_games;\n    uint public current_number_of_players;\n    uint[2] reg_time;\n    uint lastchanceat;\n    address payable admin;\n    address adr;\n    address payable [2] public players;\n    uint public current_turn;\n    uint public current_game;\n    uint public choice1;\n    uint public choice2;\n    bytes32 hash1;\n    bytes32 hash2;\n    uint winner;\n    uint public win;\n    uint[3] public scoreboard;\n    uint[5][5] public game_matrix;\n    \n    constructor() public\n    {\n        admin=msg.sender;\n        balance[admin] = 1000;\n        fee=5 ether;\n        current_number_of_players=0;\n        number_of_games=10;\n        players[0]=0x0000000000000000000000000000000000000000;\n        players[1]=0x0000000000000000000000000000000000000000;\n        reg_time[0]=0;\n        reg_time[1]=0;\n        current_turn=0;\n        current_game=1;\n        game_matrix=[[0, 2, 1, 1, 2],[1, 0, 2, 2, 1],[2, 1, 0, 1, 2],[2, 1, 2, 0, 1],[1, 2, 1, 2, 0]];\n        scoreboard=[0,0,0];\n        choice1=10;\n        choice2=10;\n        winner=3;\n    }\n    \n    function reset_to_defaults() public\n    {\n        number_of_games=10;\n        players[0]=0x0000000000000000000000000000000000000000;\n        players[1]=0x0000000000000000000000000000000000000000;\n        reg_time[0]=0;\n        reg_time[1]=0;\n        current_turn=0;\n        current_game=1;\n        choice1=10;\n        choice2=10;\n        winner=3;\n    }\n    \n    function register_as_player() public payable\n    {\n        require(msg.sender!=admin,\"Admin Cannot Register\");\n        require(current_number_of_players<2,\"Room Already Full!!\");\n        require(msg.value==fee,\"Send Exact Fee (Only Ether)\");\n        if(current_number_of_players==1)\n            require(msg.sender!=players[0],\"This address is already registered\");\n        \n        players[current_number_of_players]=msg.sender;\n        reg_time[current_number_of_players]=now;\n        current_number_of_players++;\n        if(current_number_of_players==2)\n        {\n            current_turn=0;\n            current_game=1;\n            lastchanceat=now;\n        }\n    }\n    \n    function p2_not_present_refund() public\n    {\n        require(msg.sender!=admin,\"Admin Cannot use this function.\");\n        require(msg.sender==players[0],\"Only player1 can invoke this.\");\n        require(current_number_of_players==1,\"Cannot invoke this function.\");\n        require(reg_time[0] + 10 seconds < now,\"Please wait for some more time.\");\n        players[0].transfer(fee);\n        reg_time[0]=0;\n        reg_time[1]=0;\n        current_number_of_players=0;\n        reset_to_defaults();\n    }\n    \n    function inactivity_claim() public\n    {\n        require(current_number_of_players==2, \"Room not full, Please wait\");\n        \n        if(msg.sender==players[1])\n        {\n            if((current_game%2==1 && current_turn==0) || (current_game%2==0 && current_turn==1))\n            {\n                require(lastchanceat+10 seconds < now,\"Too Early to Claim, please wait\");\n                players[1].transfer(2*fee);\n                reset_to_defaults();\n                reg_time[0]=0;\n                reg_time[1]=0;\n            current_number_of_players=0;\n            }\n        }\n        else if(msg.sender==players[0])\n        {\n            if((current_game%2==1 && current_turn==1) || (current_game%2==0 && current_turn==0))\n            {\n                require(lastchanceat+10 seconds < now,\"Too Early to Claim, please wait\");\n                players[0].transfer(2*fee);\n                reset_to_defaults();\n                reg_time[0]=0;\n                reg_time[1]=0;\n            current_number_of_players=0;\n            }\n        }\n    }\n    \n    function play(uint ch,string memory key) public\n    {\n        require(current_turn==0 || current_turn==1,\"Moves stored, now both Reveal Choices and select getWinner\");\n        require(current_number_of_players==2,\"Awaiting Other Player !\");\n        require(msg.sender==players[0] || msg.sender==players[1],\"You are not registered to play.\");\n        \n        if(current_game%2==1 && current_turn==0)\n        {\n            require(msg.sender==players[0],\"It is Player1's Turn !!\");\n            hash1=sha256(abi.encodePacked(ch,key));\n            current_turn+=1;\n            lastchanceat=now;\n        }\n        else if(current_game%2==1 && current_turn==1)\n        {\n            require(msg.sender==players[1],\"It is Player2's Turn !!\");\n            hash2=sha256(abi.encodePacked(ch,key));\n            current_turn+=1;\n            lastchanceat=now;\n        }\n        else if(current_game%2==0 && current_turn==0)\n        {\n            require(msg.sender==players[1],\"It is Player2's Turn !!\");\n            hash2=sha256(abi.encodePacked(ch,key));\n            current_turn+=1;\n            lastchanceat=now;\n        }\n        else if(current_game%2==0 && current_turn==1)\n        {\n            require(msg.sender==players[0],\"It is Player1's Turn !!\");\n            hash1=sha256(abi.encodePacked(ch,key));\n            current_turn+=1;\n            lastchanceat=now;\n        }\n\n    }\n    \n    function reveal(uint ch,string memory key) public\n    {\n        bytes32 testhash;\n        require(msg.sender==players[0] || msg.sender==players[1],\"You are not registered to play.\");\n        require(current_turn==2,\"Please wait for other player to commit\");\n        if(msg.sender==players[0])\n        {\n            testhash=sha256(abi.encodePacked(ch,key));\n            if(testhash!=hash1)\n            {\n                players[1].transfer(2*fee);\n                reset_to_defaults();\n            }\n            choice1=ch;\n        }\n        if(msg.sender==players[1])\n        {\n            testhash=sha256(abi.encodePacked(ch,key));\n            if(testhash!=hash2)\n            {\n                players[0].transfer(2*fee);\n                reset_to_defaults();\n            }\n            choice2=ch;\n        }\n    }\n    \n    function getWinner() public returns(uint256 w)\n    {\n        bool val=(msg.sender==players[0] || msg.sender==players[1]);\n        require(val==true,\"Only registered players allowed\");\n        require(choice1!=10 && choice2!=10,\"Someone is still yet to reveal their choices\");\n        winner=game_matrix[choice1-1][choice2-1];\n        win = winner;\n        scoreboard[winner]++;\n        \n        if(current_game==number_of_games)\n        {\n            if(scoreboard[1]==scoreboard[2])\n            {\n                players[0].transfer(fee);\n                players[1].transfer(fee);\n            }\n            else if(scoreboard[1]>scoreboard[2])\n            {\n                players[0].transfer(2*fee);\n            }\n            else\n            {\n                players[1].transfer(2*fee);\n            }\n            reg_time[0]=0;\n            reg_time[1]=0;\n            current_number_of_players=0;\n            reset_to_defaults();\n        }\n        current_game++;\n        current_turn=0;\n        choice1=10;\n        choice2=10;\n        winner=3;\n        \n        return win;\n    }\n    \n}",
  "sourcePath": "/home/ksvsc/IIITH/Monsoon19/Block Chain/Assignment1/My_Contract/SPSLS/contracts/SPSLS.sol",
  "compiler": {
    "name": "solc",
    "version": "0.5.8+commit.23d335f2.Emscripten.clang"
  },
  "schemaVersion": "3.0.15",
  "updatedAt": "2019-09-17T09:24:57.923Z",
  "devdoc": {
    "methods": {}
  },
  "userdoc": {
    "methods": {}
  }
}